{
  "contractName": "VoteToken",
  "abi": [
    {
      "inputs": [],
      "stateMutability": "nonpayable",
      "type": "constructor"
    },
    {
      "inputs": [
        {
          "internalType": "address",
          "name": "",
          "type": "address"
        }
      ],
      "name": "BlacklistVoters",
      "outputs": [
        {
          "internalType": "bool",
          "name": "",
          "type": "bool"
        }
      ],
      "stateMutability": "view",
      "type": "function",
      "constant": true
    },
    {
      "inputs": [
        {
          "internalType": "uint256",
          "name": "",
          "type": "uint256"
        }
      ],
      "name": "Candidate",
      "outputs": [
        {
          "internalType": "address",
          "name": "",
          "type": "address"
        }
      ],
      "stateMutability": "view",
      "type": "function",
      "constant": true
    },
    {
      "inputs": [],
      "name": "ElectionCommission",
      "outputs": [
        {
          "internalType": "address",
          "name": "",
          "type": "address"
        }
      ],
      "stateMutability": "view",
      "type": "function",
      "constant": true
    },
    {
      "inputs": [],
      "name": "TokenName",
      "outputs": [
        {
          "internalType": "string",
          "name": "",
          "type": "string"
        }
      ],
      "stateMutability": "view",
      "type": "function",
      "constant": true
    },
    {
      "inputs": [
        {
          "internalType": "address",
          "name": "",
          "type": "address"
        }
      ],
      "name": "VoteCount",
      "outputs": [
        {
          "internalType": "uint256",
          "name": "",
          "type": "uint256"
        }
      ],
      "stateMutability": "view",
      "type": "function",
      "constant": true
    },
    {
      "inputs": [],
      "name": "VoterCount",
      "outputs": [
        {
          "internalType": "uint256",
          "name": "",
          "type": "uint256"
        }
      ],
      "stateMutability": "view",
      "type": "function",
      "constant": true
    },
    {
      "inputs": [
        {
          "internalType": "uint256",
          "name": "",
          "type": "uint256"
        }
      ],
      "name": "VoterList",
      "outputs": [
        {
          "internalType": "address",
          "name": "",
          "type": "address"
        }
      ],
      "stateMutability": "view",
      "type": "function",
      "constant": true
    },
    {
      "inputs": [
        {
          "internalType": "uint256",
          "name": "",
          "type": "uint256"
        }
      ],
      "name": "Voters",
      "outputs": [
        {
          "internalType": "address",
          "name": "",
          "type": "address"
        }
      ],
      "stateMutability": "view",
      "type": "function",
      "constant": true
    },
    {
      "inputs": [],
      "name": "airDrop",
      "outputs": [
        {
          "internalType": "bool",
          "name": "",
          "type": "bool"
        }
      ],
      "stateMutability": "view",
      "type": "function",
      "constant": true
    },
    {
      "inputs": [
        {
          "internalType": "address",
          "name": "",
          "type": "address"
        }
      ],
      "name": "balanceOf",
      "outputs": [
        {
          "internalType": "uint256",
          "name": "",
          "type": "uint256"
        }
      ],
      "stateMutability": "view",
      "type": "function",
      "constant": true
    },
    {
      "inputs": [
        {
          "internalType": "address",
          "name": "_candidate",
          "type": "address"
        }
      ],
      "name": "addCandidate",
      "outputs": [
        {
          "internalType": "bool",
          "name": "",
          "type": "bool"
        }
      ],
      "stateMutability": "nonpayable",
      "type": "function"
    },
    {
      "inputs": [
        {
          "internalType": "address",
          "name": "_voter",
          "type": "address"
        }
      ],
      "name": "searchVoter",
      "outputs": [
        {
          "internalType": "bool",
          "name": "",
          "type": "bool"
        }
      ],
      "stateMutability": "view",
      "type": "function",
      "constant": true
    },
    {
      "inputs": [
        {
          "internalType": "address",
          "name": "_candidate",
          "type": "address"
        }
      ],
      "name": "searchCandidate",
      "outputs": [
        {
          "internalType": "bool",
          "name": "",
          "type": "bool"
        }
      ],
      "stateMutability": "view",
      "type": "function",
      "constant": true
    },
    {
      "inputs": [
        {
          "internalType": "address",
          "name": "_voter",
          "type": "address"
        }
      ],
      "name": "AddVoter",
      "outputs": [
        {
          "internalType": "bool",
          "name": "",
          "type": "bool"
        }
      ],
      "stateMutability": "nonpayable",
      "type": "function"
    },
    {
      "inputs": [],
      "name": "AirDrop",
      "outputs": [
        {
          "internalType": "bool",
          "name": "",
          "type": "bool"
        }
      ],
      "stateMutability": "nonpayable",
      "type": "function"
    },
    {
      "inputs": [
        {
          "internalType": "address",
          "name": "_candidate",
          "type": "address"
        },
        {
          "internalType": "address",
          "name": "voter",
          "type": "address"
        }
      ],
      "name": "Vote",
      "outputs": [
        {
          "internalType": "bool",
          "name": "",
          "type": "bool"
        }
      ],
      "stateMutability": "nonpayable",
      "type": "function"
    }
  ],
  "bytecode": "0x60806040526040518060400160405280600481526020017f4d61617400000000000000000000000000000000000000000000000000000000815250600190816200004a919062000335565b503480156200005857600080fd5b5033600960006101000a81548173ffffffffffffffffffffffffffffffffffffffff021916908373ffffffffffffffffffffffffffffffffffffffff1602179055506001600260006101000a81548160ff0219169083151502179055506200041c565b600081519050919050565b7f4e487b7100000000000000000000000000000000000000000000000000000000600052604160045260246000fd5b7f4e487b7100000000000000000000000000000000000000000000000000000000600052602260045260246000fd5b600060028204905060018216806200013d57607f821691505b602082108103620001535762000152620000f5565b5b50919050565b60008190508160005260206000209050919050565b60006020601f8301049050919050565b600082821b905092915050565b600060088302620001bd7fffffffffffffffffffffffffffffffffffffffffffffffffffffffffffffffff826200017e565b620001c986836200017e565b95508019841693508086168417925050509392505050565b6000819050919050565b6000819050919050565b600062000216620002106200020a84620001e1565b620001eb565b620001e1565b9050919050565b6000819050919050565b6200023283620001f5565b6200024a62000241826200021d565b8484546200018b565b825550505050565b600090565b6200026162000252565b6200026e81848462000227565b505050565b5b8181101562000296576200028a60008262000257565b60018101905062000274565b5050565b601f821115620002e557620002af8162000159565b620002ba846200016e565b81016020851015620002ca578190505b620002e2620002d9856200016e565b83018262000273565b50505b505050565b600082821c905092915050565b60006200030a60001984600802620002ea565b1980831691505092915050565b6000620003258383620002f7565b9150826002028217905092915050565b6200034082620000bb565b67ffffffffffffffff8111156200035c576200035b620000c6565b5b62000368825462000124565b620003758282856200029a565b600060209050601f831160018114620003ad576000841562000398578287015190505b620003a4858262000317565b86555062000414565b601f198416620003bd8662000159565b60005b82811015620003e757848901518255600182019150602085019450602081019050620003c0565b8683101562000407578489015162000403601f891682620002f7565b8355505b6001600288020188555050505b505050505050565b611617806200042c6000396000f3fe608060405234801561001057600080fd5b50600436106101005760003560e01c80639c35d98b11610097578063ca5d088011610066578063ca5d0880146102fd578063d82d4eb91461031b578063e2f11b9c1461034b578063e7a5001a1461037b57610100565b80639c35d98b1461024f578063a54b4b551461027f578063b381a935146102af578063b6d7855a146102df57610100565b80633acd75f8116100d35780633acd75f8146101b3578063643e94c4146101e357806370a0823114610201578063939c0a661461023157610100565b806303a0d535146101055780630ad2eca7146101355780632b164749146101655780632e46fb9a14610195575b600080fd5b61011f600480360381019061011a9190610f33565b6103ab565b60405161012c9190610fa1565b60405180910390f35b61014f600480360381019061014a9190610fe8565b6103de565b60405161015c9190611030565b60405180910390f35b61017f600480360381019061017a9190610fe8565b6106a6565b60405161018c9190611030565b60405180910390f35b61019d6106c6565b6040516101aa919061105a565b60405180910390f35b6101cd60048036038101906101c89190610fe8565b6106cc565b6040516101da9190611030565b60405180910390f35b6101eb6108d4565b6040516101f89190610fa1565b60405180910390f35b61021b60048036038101906102169190610fe8565b6108fa565b604051610228919061105a565b60405180910390f35b610239610912565b6040516102469190611030565b60405180910390f35b61026960048036038101906102649190610f33565b610a6b565b6040516102769190610fa1565b60405180910390f35b61029960048036038101906102949190611075565b610aaa565b6040516102a69190611030565b60405180910390f35b6102c960048036038101906102c49190610fe8565b610ca4565b6040516102d69190611030565b60405180910390f35b6102e7610d52565b6040516102f49190611145565b60405180910390f35b610305610de0565b6040516103129190611030565b60405180910390f35b61033560048036038101906103309190610fe8565b610df3565b604051610342919061105a565b60405180910390f35b61036560048036038101906103609190610f33565b610e0b565b6040516103729190610fa1565b60405180910390f35b61039560048036038101906103909190610fe8565b610e4a565b6040516103a29190611030565b60405180910390f35b60046020528060005260406000206000915054906101000a900473ffffffffffffffffffffffffffffffffffffffff1681565b6000600960009054906101000a900473ffffffffffffffffffffffffffffffffffffffff1673ffffffffffffffffffffffffffffffffffffffff163373ffffffffffffffffffffffffffffffffffffffff1614610470576040517f08c379a0000000000000000000000000000000000000000000000000000000008152600401610467906111d9565b60405180910390fd5b600960009054906101000a900473ffffffffffffffffffffffffffffffffffffffff1673ffffffffffffffffffffffffffffffffffffffff168273ffffffffffffffffffffffffffffffffffffffff1603610500576040517f08c379a00000000000000000000000000000000000000000000000000000000081526004016104f790611245565b60405180910390fd5b600360008373ffffffffffffffffffffffffffffffffffffffff1673ffffffffffffffffffffffffffffffffffffffff16815260200190815260200160002060009054906101000a900460ff161561058d576040517f08c379a0000000000000000000000000000000000000000000000000000000008152600401610584906112b1565b60405180910390fd5b600160005461059c9190611300565b60008190555081600460008054815260200190815260200160002060006101000a81548173ffffffffffffffffffffffffffffffffffffffff021916908373ffffffffffffffffffffffffffffffffffffffff1602179055506005829080600181540180825580915050600190039060005260206000200160009091909190916101000a81548173ffffffffffffffffffffffffffffffffffffffff021916908373ffffffffffffffffffffffffffffffffffffffff1602179055506000600860008473ffffffffffffffffffffffffffffffffffffffff1673ffffffffffffffffffffffffffffffffffffffff1681526020019081526020016000208190555060019050919050565b60036020528060005260406000206000915054906101000a900460ff1681565b60005481565b6000600960009054906101000a900473ffffffffffffffffffffffffffffffffffffffff1673ffffffffffffffffffffffffffffffffffffffff163373ffffffffffffffffffffffffffffffffffffffff161461075e576040517f08c379a0000000000000000000000000000000000000000000000000000000008152600401610755906113a6565b60405180910390fd5b3373ffffffffffffffffffffffffffffffffffffffff168273ffffffffffffffffffffffffffffffffffffffff160361079657600080fd5b600360008373ffffffffffffffffffffffffffffffffffffffff1673ffffffffffffffffffffffffffffffffffffffff16815260200190815260200160002060009054906101000a900460ff1615610823576040517f08c379a000000000000000000000000000000000000000000000000000000000815260040161081a90611412565b60405180910390fd5b6006829080600181540180825580915050600190039060005260206000200160009091909190916101000a81548173ffffffffffffffffffffffffffffffffffffffff021916908373ffffffffffffffffffffffffffffffffffffffff1602179055506000600760008473ffffffffffffffffffffffffffffffffffffffff1673ffffffffffffffffffffffffffffffffffffffff1681526020019081526020016000208190555060019050919050565b600960009054906101000a900473ffffffffffffffffffffffffffffffffffffffff1681565b60086020528060005260406000206000915090505481565b6000600960009054906101000a900473ffffffffffffffffffffffffffffffffffffffff1673ffffffffffffffffffffffffffffffffffffffff163373ffffffffffffffffffffffffffffffffffffffff161461096e57600080fd5b600260009054906101000a900460ff166109bd576040517f08c379a00000000000000000000000000000000000000000000000000000000081526004016109b49061147e565b60405180910390fd5b60005b600580549050811015610a6357600160086000600584815481106109e7576109e661149e565b5b9060005260206000200160009054906101000a900473ffffffffffffffffffffffffffffffffffffffff1673ffffffffffffffffffffffffffffffffffffffff1673ffffffffffffffffffffffffffffffffffffffff168152602001908152602001600020819055508080610a5b906114cd565b9150506109c0565b506001905090565b60058181548110610a7b57600080fd5b906000526020600020016000915054906101000a900473ffffffffffffffffffffffffffffffffffffffff1681565b6000600960009054906101000a900473ffffffffffffffffffffffffffffffffffffffff1673ffffffffffffffffffffffffffffffffffffffff163373ffffffffffffffffffffffffffffffffffffffff1614610b0657600080fd5b6000600860008473ffffffffffffffffffffffffffffffffffffffff1673ffffffffffffffffffffffffffffffffffffffff1681526020019081526020016000205411610b88576040517f08c379a0000000000000000000000000000000000000000000000000000000008152600401610b7f90611561565b60405180910390fd5b600860008373ffffffffffffffffffffffffffffffffffffffff1673ffffffffffffffffffffffffffffffffffffffff16815260200190815260200160002054600760008573ffffffffffffffffffffffffffffffffffffffff1673ffffffffffffffffffffffffffffffffffffffff16815260200190815260200160002054610c129190611300565b600760008573ffffffffffffffffffffffffffffffffffffffff1673ffffffffffffffffffffffffffffffffffffffff168152602001908152602001600020819055506000600860008473ffffffffffffffffffffffffffffffffffffffff1673ffffffffffffffffffffffffffffffffffffffff168152602001908152602001600020819055506001905092915050565b600080600090505b600580549050811015610d47578273ffffffffffffffffffffffffffffffffffffffff1660058281548110610ce457610ce361149e565b5b9060005260206000200160009054906101000a900473ffffffffffffffffffffffffffffffffffffffff1673ffffffffffffffffffffffffffffffffffffffff1603610d34576001915050610d4d565b8080610d3f906114cd565b915050610cac565b50600090505b919050565b60018054610d5f906115b0565b80601f0160208091040260200160405190810160405280929190818152602001828054610d8b906115b0565b8015610dd85780601f10610dad57610100808354040283529160200191610dd8565b820191906000526020600020905b815481529060010190602001808311610dbb57829003601f168201915b505050505081565b600260009054906101000a900460ff1681565b60076020528060005260406000206000915090505481565b60068181548110610e1b57600080fd5b906000526020600020016000915054906101000a900473ffffffffffffffffffffffffffffffffffffffff1681565b600080600090505b600580549050811015610eed578273ffffffffffffffffffffffffffffffffffffffff1660058281548110610e8a57610e8961149e565b5b9060005260206000200160009054906101000a900473ffffffffffffffffffffffffffffffffffffffff1673ffffffffffffffffffffffffffffffffffffffff1603610eda576001915050610ef3565b8080610ee5906114cd565b915050610e52565b50600090505b919050565b600080fd5b6000819050919050565b610f1081610efd565b8114610f1b57600080fd5b50565b600081359050610f2d81610f07565b92915050565b600060208284031215610f4957610f48610ef8565b5b6000610f5784828501610f1e565b91505092915050565b600073ffffffffffffffffffffffffffffffffffffffff82169050919050565b6000610f8b82610f60565b9050919050565b610f9b81610f80565b82525050565b6000602082019050610fb66000830184610f92565b92915050565b610fc581610f80565b8114610fd057600080fd5b50565b600081359050610fe281610fbc565b92915050565b600060208284031215610ffe57610ffd610ef8565b5b600061100c84828501610fd3565b91505092915050565b60008115159050919050565b61102a81611015565b82525050565b60006020820190506110456000830184611021565b92915050565b61105481610efd565b82525050565b600060208201905061106f600083018461104b565b92915050565b6000806040838503121561108c5761108b610ef8565b5b600061109a85828601610fd3565b92505060206110ab85828601610fd3565b9150509250929050565b600081519050919050565b600082825260208201905092915050565b60005b838110156110ef5780820151818401526020810190506110d4565b60008484015250505050565b6000601f19601f8301169050919050565b6000611117826110b5565b61112181856110c0565b93506111318185602086016110d1565b61113a816110fb565b840191505092915050565b6000602082019050818103600083015261115f818461110c565b905092915050565b7f456c656374696f6e436f6d6d6973696f6e2063616e206f6e6c792063616c6c2060008201527f746869732066756e6374696f6e00000000000000000000000000000000000000602082015250565b60006111c3602d836110c0565b91506111ce82611167565b604082019050919050565b600060208201905081810360008301526111f2816111b6565b9050919050565b7f456c656374696f6e436f6d6d6973696f6e2063616e6e6f7420766f7465000000600082015250565b600061122f601d836110c0565b915061123a826111f9565b602082019050919050565b6000602082019050818103600083015261125e81611222565b9050919050565b7f426c61636b6c6973746564206164647265737300000000000000000000000000600082015250565b600061129b6013836110c0565b91506112a682611265565b602082019050919050565b600060208201905081810360008301526112ca8161128e565b9050919050565b7f4e487b7100000000000000000000000000000000000000000000000000000000600052601160045260246000fd5b600061130b82610efd565b915061131683610efd565b925082820190508082111561132e5761132d6112d1565b5b92915050565b7f4f6e6c7920456c656374696f6e436f6d6d6973696f6e2063616e2063616c6c2060008201527f746869732066756e6374696f6e2e000000000000000000000000000000000000602082015250565b6000611390602e836110c0565b915061139b82611334565b604082019050919050565b600060208201905081810360008301526113bf81611383565b9050919050565b7f54686973206164647265737320697320426c61636b6c69737465640000000000600082015250565b60006113fc601b836110c0565b9150611407826113c6565b602082019050919050565b6000602082019050818103600083015261142b816113ef565b9050919050565b7f2041697244726f7020616c726561647920646f6e652100000000000000000000600082015250565b60006114686016836110c0565b915061147382611432565b602082019050919050565b600060208201905081810360008301526114978161145b565b9050919050565b7f4e487b7100000000000000000000000000000000000000000000000000000000600052603260045260246000fd5b60006114d882610efd565b91507fffffffffffffffffffffffffffffffffffffffffffffffffffffffffffffffff820361150a576115096112d1565b5b600182019050919050565b7f496e73756666696369656e742062616c616e63652e0000000000000000000000600082015250565b600061154b6015836110c0565b915061155682611515565b602082019050919050565b6000602082019050818103600083015261157a8161153e565b9050919050565b7f4e487b7100000000000000000000000000000000000000000000000000000000600052602260045260246000fd5b600060028204905060018216806115c857607f821691505b6020821081036115db576115da611581565b5b5091905056fea2646970667358221220dfeb10b78bd27ebd7a4acb2e55e9b3165a066a04b368a06a85b252c7c35b092f64736f6c63430008110033",
  "immutableReferences": {},
  "source": "// SPDX-License-Identifier: MIT\r\npragma solidity^0.8.17 ; \r\ncontract VoteToken { \r\n    uint256 public  VoterCount  ; \r\n   string  public TokenName = \"Maat\" ; \r\n   bool public  airDrop ; \r\n\r\n   mapping(address => bool) public  BlacklistVoters ; \r\n   mapping(uint256 => address) public  VoterList ; \r\n   address[] public  Voters ; \r\n   address[] public  Candidate ;\r\n   mapping(address => uint256) public  VoteCount ; \r\n\r\n\r\n    mapping(address => uint256) public balanceOf ; \r\n    address public  ElectionCommission;\r\n     constructor(){\r\n        ElectionCommission = msg.sender ; \r\n         airDrop = true ; \r\n     }\r\n     function addCandidate(address _candidate) public returns (bool) {\r\n         require(msg.sender == ElectionCommission , \"Only ElectionCommision can call this function.\");\r\n         require( _candidate != msg.sender) ; \r\n         require(!BlacklistVoters[_candidate] , \"This address is Blacklisted\");\r\n         Candidate.push(_candidate) ; \r\n         VoteCount[_candidate] = 0 ; \r\n         return true;\r\n     }\r\n\r\n     function searchVoter(address _voter) public view returns (bool) {\r\n      for(uint256 i = 0 ; i < Voters.length ; i++){\r\n         if(Voters[i] == _voter) return true ;\r\n      }\r\n      return false ;\r\n     } \r\n        function searchCandidate(address _candidate) public view returns (bool) {\r\n      for(uint256 i = 0 ; i < Voters.length ; i++){\r\n         if(Voters[i] == _candidate) return true ;\r\n      }\r\n      return false ;\r\n     }\r\n     function AddVoter(address _voter) public   returns (bool) {\r\n        require( msg.sender == ElectionCommission , \"ElectionCommision can only call this function\");\r\n        require( _voter != ElectionCommission , \"ElectionCommision cannot vote\");\r\n        require( !BlacklistVoters[_voter] , \"Blacklisted address\");\r\n        VoterCount = VoterCount + 1 ; \r\n        VoterList[VoterCount] = _voter ; \r\n        Voters.push(_voter);\r\n        balanceOf[_voter] = 0 ; \r\n      return true ; \r\n\r\n     }\r\n     function AirDrop() public returns (bool) {\r\n      require ( msg.sender == ElectionCommission);\r\n      require( airDrop , \" AirDrop already done!\" );\r\n      for(uint id = 0 ; id < Voters.length ; id++){\r\n         balanceOf[Voters[id]] = 1 ; \r\n      }\r\n      // airDrop = false ; \r\n      return true ; \r\n     }\r\n\r\n     function Vote(address _candidate , address voter) public returns (bool) { \r\n            require (msg.sender == ElectionCommission);\r\n            require(balanceOf[voter] > 0 , \"Insufficient balance.\");\r\n            VoteCount[_candidate] = VoteCount[_candidate] + balanceOf[voter] ; \r\n            balanceOf[voter] = 0 ; \r\n            return true ; \r\n     }\r\n}",
  "sourcePath": "C:\\Users\\9165p\\OneDrive\\Desktop\\OnChain Voting\\voting\\src\\contracts\\VoteToken.sol",
  "compiler": {
    "name": "solc",
    "version": "0.8.17+commit.8df45f5f.Emscripten.clang"
  },
  "schemaVersion": "3.4.10",
  "updatedAt": "2022-11-30T18:24:11.149Z",
  "networkType": "ethereum",
  "devdoc": {
    "kind": "dev",
    "methods": {},
    "version": 1
  },
  "userdoc": {
    "kind": "user",
    "methods": {},
    "version": 1
  }
}