{
  "contractName": "VoteToken",
  "abi": [
    {
      "inputs": [],
      "stateMutability": "nonpayable",
      "type": "constructor"
    },
    {
      "anonymous": false,
      "inputs": [
        {
          "indexed": false,
          "internalType": "address",
          "name": "candidate",
          "type": "address"
        },
        {
          "indexed": false,
          "internalType": "uint256",
          "name": "count",
          "type": "uint256"
        }
      ],
      "name": "CandidateData",
      "type": "event"
    },
    {
      "anonymous": false,
      "inputs": [
        {
          "indexed": false,
          "internalType": "address",
          "name": "candidate",
          "type": "address"
        },
        {
          "indexed": false,
          "internalType": "string",
          "name": "image",
          "type": "string"
        },
        {
          "indexed": false,
          "internalType": "string",
          "name": "residence",
          "type": "string"
        }
      ],
      "name": "CandidateList",
      "type": "event"
    },
    {
      "anonymous": false,
      "inputs": [
        {
          "indexed": false,
          "internalType": "address",
          "name": "voter",
          "type": "address"
        }
      ],
      "name": "VoterAdded",
      "type": "event"
    },
    {
      "inputs": [
        {
          "internalType": "address",
          "name": "",
          "type": "address"
        }
      ],
      "name": "BlacklistVoters",
      "outputs": [
        {
          "internalType": "bool",
          "name": "",
          "type": "bool"
        }
      ],
      "stateMutability": "view",
      "type": "function",
      "constant": true
    },
    {
      "inputs": [
        {
          "internalType": "uint256",
          "name": "",
          "type": "uint256"
        }
      ],
      "name": "Candidate",
      "outputs": [
        {
          "internalType": "address",
          "name": "",
          "type": "address"
        }
      ],
      "stateMutability": "view",
      "type": "function",
      "constant": true
    },
    {
      "inputs": [],
      "name": "CandidateCount",
      "outputs": [
        {
          "internalType": "uint256",
          "name": "",
          "type": "uint256"
        }
      ],
      "stateMutability": "view",
      "type": "function",
      "constant": true
    },
    {
      "inputs": [],
      "name": "ElectionCommission",
      "outputs": [
        {
          "internalType": "address",
          "name": "",
          "type": "address"
        }
      ],
      "stateMutability": "view",
      "type": "function",
      "constant": true
    },
    {
      "inputs": [],
      "name": "TokenName",
      "outputs": [
        {
          "internalType": "string",
          "name": "",
          "type": "string"
        }
      ],
      "stateMutability": "view",
      "type": "function",
      "constant": true
    },
    {
      "inputs": [],
      "name": "TotalVoteCount",
      "outputs": [
        {
          "internalType": "uint256",
          "name": "",
          "type": "uint256"
        }
      ],
      "stateMutability": "view",
      "type": "function",
      "constant": true
    },
    {
      "inputs": [
        {
          "internalType": "address",
          "name": "",
          "type": "address"
        }
      ],
      "name": "VoteCount",
      "outputs": [
        {
          "internalType": "uint256",
          "name": "",
          "type": "uint256"
        }
      ],
      "stateMutability": "view",
      "type": "function",
      "constant": true
    },
    {
      "inputs": [],
      "name": "VoterCount",
      "outputs": [
        {
          "internalType": "uint256",
          "name": "",
          "type": "uint256"
        }
      ],
      "stateMutability": "view",
      "type": "function",
      "constant": true
    },
    {
      "inputs": [
        {
          "internalType": "uint256",
          "name": "",
          "type": "uint256"
        }
      ],
      "name": "VoterList",
      "outputs": [
        {
          "internalType": "address",
          "name": "",
          "type": "address"
        }
      ],
      "stateMutability": "view",
      "type": "function",
      "constant": true
    },
    {
      "inputs": [
        {
          "internalType": "uint256",
          "name": "",
          "type": "uint256"
        }
      ],
      "name": "Voters",
      "outputs": [
        {
          "internalType": "address",
          "name": "",
          "type": "address"
        }
      ],
      "stateMutability": "view",
      "type": "function",
      "constant": true
    },
    {
      "inputs": [
        {
          "internalType": "address",
          "name": "",
          "type": "address"
        }
      ],
      "name": "balanceOf",
      "outputs": [
        {
          "internalType": "uint256",
          "name": "",
          "type": "uint256"
        }
      ],
      "stateMutability": "view",
      "type": "function",
      "constant": true
    },
    {
      "inputs": [
        {
          "internalType": "address",
          "name": "_candidate",
          "type": "address"
        },
        {
          "internalType": "string",
          "name": "image",
          "type": "string"
        },
        {
          "internalType": "string",
          "name": "residence",
          "type": "string"
        }
      ],
      "name": "addCandidate",
      "outputs": [
        {
          "internalType": "bool",
          "name": "",
          "type": "bool"
        }
      ],
      "stateMutability": "nonpayable",
      "type": "function"
    },
    {
      "inputs": [
        {
          "internalType": "address",
          "name": "_candidate",
          "type": "address"
        }
      ],
      "name": "removeCandidate",
      "outputs": [
        {
          "internalType": "bool",
          "name": "",
          "type": "bool"
        }
      ],
      "stateMutability": "nonpayable",
      "type": "function"
    },
    {
      "inputs": [
        {
          "internalType": "address",
          "name": "_person",
          "type": "address"
        }
      ],
      "name": "addToBlackList",
      "outputs": [
        {
          "internalType": "bool",
          "name": "",
          "type": "bool"
        }
      ],
      "stateMutability": "nonpayable",
      "type": "function"
    },
    {
      "inputs": [
        {
          "internalType": "address",
          "name": "_voter",
          "type": "address"
        }
      ],
      "name": "AddVoter",
      "outputs": [
        {
          "internalType": "bool",
          "name": "",
          "type": "bool"
        }
      ],
      "stateMutability": "nonpayable",
      "type": "function"
    },
    {
      "inputs": [],
      "name": "StartVoting",
      "outputs": [
        {
          "internalType": "bool",
          "name": "",
          "type": "bool"
        }
      ],
      "stateMutability": "nonpayable",
      "type": "function"
    },
    {
      "inputs": [],
      "name": "StopVoting",
      "outputs": [
        {
          "internalType": "bool",
          "name": "",
          "type": "bool"
        }
      ],
      "stateMutability": "nonpayable",
      "type": "function"
    },
    {
      "inputs": [],
      "name": "Reset",
      "outputs": [
        {
          "internalType": "bool",
          "name": "",
          "type": "bool"
        }
      ],
      "stateMutability": "nonpayable",
      "type": "function"
    },
    {
      "inputs": [
        {
          "internalType": "address",
          "name": "_candidate",
          "type": "address"
        },
        {
          "internalType": "address",
          "name": "_voter",
          "type": "address"
        }
      ],
      "name": "Vote",
      "outputs": [
        {
          "internalType": "bool",
          "name": "",
          "type": "bool"
        }
      ],
      "stateMutability": "nonpayable",
      "type": "function"
    }
  ],
  "bytecode": "0x60806040526040518060400160405280600481526020017f4d61617400000000000000000000000000000000000000000000000000000000815250600390816200004a91906200038d565b506000600460006101000a81548160ff0219169083151502179055503480156200007357600080fd5b5033600b60006101000a81548173ffffffffffffffffffffffffffffffffffffffff021916908373ffffffffffffffffffffffffffffffffffffffff1602179055506001600560003373ffffffffffffffffffffffffffffffffffffffff1673ffffffffffffffffffffffffffffffffffffffff16815260200190815260200160002060006101000a81548160ff02191690831515021790555062000474565b600081519050919050565b7f4e487b7100000000000000000000000000000000000000000000000000000000600052604160045260246000fd5b7f4e487b7100000000000000000000000000000000000000000000000000000000600052602260045260246000fd5b600060028204905060018216806200019557607f821691505b602082108103620001ab57620001aa6200014d565b5b50919050565b60008190508160005260206000209050919050565b60006020601f8301049050919050565b600082821b905092915050565b600060088302620002157fffffffffffffffffffffffffffffffffffffffffffffffffffffffffffffffff82620001d6565b620002218683620001d6565b95508019841693508086168417925050509392505050565b6000819050919050565b6000819050919050565b60006200026e62000268620002628462000239565b62000243565b62000239565b9050919050565b6000819050919050565b6200028a836200024d565b620002a2620002998262000275565b848454620001e3565b825550505050565b600090565b620002b9620002aa565b620002c68184846200027f565b505050565b5b81811015620002ee57620002e2600082620002af565b600181019050620002cc565b5050565b601f8211156200033d576200030781620001b1565b6200031284620001c6565b8101602085101562000322578190505b6200033a6200033185620001c6565b830182620002cb565b50505b505050565b600082821c905092915050565b6000620003626000198460080262000342565b1980831691505092915050565b60006200037d83836200034f565b9150826002028217905092915050565b620003988262000113565b67ffffffffffffffff811115620003b457620003b36200011e565b5b620003c082546200017c565b620003cd828285620002f2565b600060209050601f831160018114620004055760008415620003f0578287015190505b620003fc85826200036f565b8655506200046c565b601f1984166200041586620001b1565b60005b828110156200043f5784890151825560018201915060208501945060208101905062000418565b868310156200045f57848901516200045b601f8916826200034f565b8355505b6001600288020188555050505b505050505050565b6121e280620004846000396000f3fe608060405234801561001057600080fd5b50600436106101215760003560e01c80636dd091f9116100ad578063a54b4b5511610071578063a54b4b5514610348578063b6d7855a14610378578063d82d4eb914610396578063e22a6231146103c6578063e2f11b9c146103f657610121565b80636dd091f91461027c57806370a08231146102ac5780637a99c0a6146102dc5780638dd32e15146102fa5780639c35d98b1461031857610121565b806331b2606d116100f457806331b2606d146101d457806336f49cd7146101f2578063417c73a7146102105780636423db3414610240578063643e94c41461025e57610121565b806303a0d535146101265780630ad2eca7146101565780632b164749146101865780632e46fb9a146101b6575b600080fd5b610140600480360381019061013b9190611671565b610426565b60405161014d91906116df565b60405180910390f35b610170600480360381019061016b9190611726565b610459565b60405161017d919061176e565b60405180910390f35b6101a0600480360381019061019b9190611726565b610758565b6040516101ad919061176e565b60405180910390f35b6101be610778565b6040516101cb9190611798565b60405180910390f35b6101dc61077e565b6040516101e99190611798565b60405180910390f35b6101fa610784565b604051610207919061176e565b60405180910390f35b61022a60048036038101906102259190611726565b6107f7565b604051610237919061176e565b60405180910390f35b610248610977565b604051610255919061176e565b60405180910390f35b610266610bd0565b60405161027391906116df565b60405180910390f35b61029660048036038101906102919190611726565b610bf6565b6040516102a3919061176e565b60405180910390f35b6102c660048036038101906102c19190611726565b610f42565b6040516102d39190611798565b60405180910390f35b6102e4610f5a565b6040516102f1919061176e565b60405180910390f35b610302610fce565b60405161030f9190611798565b60405180910390f35b610332600480360381019061032d9190611671565b610fd4565b60405161033f91906116df565b60405180910390f35b610362600480360381019061035d91906117b3565b611013565b60405161036f919061176e565b60405180910390f35b6103806112e9565b60405161038d9190611883565b60405180910390f35b6103b060048036038101906103ab9190611726565b611377565b6040516103bd9190611798565b60405180910390f35b6103e060048036038101906103db91906119da565b61138f565b6040516103ed919061176e565b60405180910390f35b610410600480360381019061040b9190611671565b6115e8565b60405161041d91906116df565b60405180910390f35b60066020528060005260406000206000915054906101000a900473ffffffffffffffffffffffffffffffffffffffff1681565b6000600b60009054906101000a900473ffffffffffffffffffffffffffffffffffffffff1673ffffffffffffffffffffffffffffffffffffffff163373ffffffffffffffffffffffffffffffffffffffff16146104eb576040517f08c379a00000000000000000000000000000000000000000000000000000000081526004016104e290611ad7565b60405180910390fd5b600b60009054906101000a900473ffffffffffffffffffffffffffffffffffffffff1673ffffffffffffffffffffffffffffffffffffffff168273ffffffffffffffffffffffffffffffffffffffff160361057b576040517f08c379a000000000000000000000000000000000000000000000000000000000815260040161057290611b43565b60405180910390fd5b600560008373ffffffffffffffffffffffffffffffffffffffff1673ffffffffffffffffffffffffffffffffffffffff16815260200190815260200160002060009054906101000a900460ff1615610608576040517f08c379a00000000000000000000000000000000000000000000000000000000081526004016105ff90611baf565b60405180910390fd5b60016000546106179190611bfe565b60008190555081600660008054815260200190815260200160002060006101000a81548173ffffffffffffffffffffffffffffffffffffffff021916908373ffffffffffffffffffffffffffffffffffffffff1602179055506007829080600181540180825580915050600190039060005260206000200160009091909190916101000a81548173ffffffffffffffffffffffffffffffffffffffff021916908373ffffffffffffffffffffffffffffffffffffffff1602179055506001600a60008473ffffffffffffffffffffffffffffffffffffffff1673ffffffffffffffffffffffffffffffffffffffff168152602001908152602001600020819055507fa636f4a11e2d3ba7f89d042ecb0a6b886716e98cd49d8fd876ee0f73bced42b88260405161074791906116df565b60405180910390a160019050919050565b60056020528060005260406000206000915054906101000a900460ff1681565b60005481565b60025481565b6000600460009054906101000a900460ff166107d5576040517f08c379a00000000000000000000000000000000000000000000000000000000081526004016107cc90611c7e565b60405180910390fd5b6000600460006101000a81548160ff0219169083151502179055506001905090565b6000600b60009054906101000a900473ffffffffffffffffffffffffffffffffffffffff1673ffffffffffffffffffffffffffffffffffffffff163373ffffffffffffffffffffffffffffffffffffffff1614610889576040517f08c379a000000000000000000000000000000000000000000000000000000000815260040161088090611d10565b60405180910390fd5b600560008373ffffffffffffffffffffffffffffffffffffffff1673ffffffffffffffffffffffffffffffffffffffff16815260200190815260200160002060009054906101000a900460ff1615610916576040517f08c379a000000000000000000000000000000000000000000000000000000000815260040161090d90611da2565b60405180910390fd5b6001600560008473ffffffffffffffffffffffffffffffffffffffff1673ffffffffffffffffffffffffffffffffffffffff16815260200190815260200160002060006101000a81548160ff02191690831515021790555060019050919050565b6000600b60009054906101000a900473ffffffffffffffffffffffffffffffffffffffff1673ffffffffffffffffffffffffffffffffffffffff163373ffffffffffffffffffffffffffffffffffffffff1614610a09576040517f08c379a0000000000000000000000000000000000000000000000000000000008152600401610a0090611ad7565b60405180910390fd5b60005b600780549050811015610aaf576001600a600060078481548110610a3357610a32611dc2565b5b9060005260206000200160009054906101000a900473ffffffffffffffffffffffffffffffffffffffff1673ffffffffffffffffffffffffffffffffffffffff1673ffffffffffffffffffffffffffffffffffffffff168152602001908152602001600020819055508080610aa790611df1565b915050610a0c565b5060005b600880549050811015610b565760006009600060088481548110610ada57610ad9611dc2565b5b9060005260206000200160009054906101000a900473ffffffffffffffffffffffffffffffffffffffff1673ffffffffffffffffffffffffffffffffffffffff1673ffffffffffffffffffffffffffffffffffffffff168152602001908152602001600020819055508080610b4e90611df1565b915050610ab3565b50600460009054906101000a900460ff16610ba6576040517f08c379a0000000000000000000000000000000000000000000000000000000008152600401610b9d90611c7e565b60405180910390fd5b6000600460006101000a81548160ff02191690831515021790555060006002819055506001905090565b600b60009054906101000a900473ffffffffffffffffffffffffffffffffffffffff1681565b6000600b60009054906101000a900473ffffffffffffffffffffffffffffffffffffffff1673ffffffffffffffffffffffffffffffffffffffff163373ffffffffffffffffffffffffffffffffffffffff1614610c88576040517f08c379a0000000000000000000000000000000000000000000000000000000008152600401610c7f90611eab565b60405180910390fd5b3373ffffffffffffffffffffffffffffffffffffffff168273ffffffffffffffffffffffffffffffffffffffff1603610cc057600080fd5b600560008373ffffffffffffffffffffffffffffffffffffffff1673ffffffffffffffffffffffffffffffffffffffff16815260200190815260200160002060009054906101000a900460ff1615610d4d576040517f08c379a0000000000000000000000000000000000000000000000000000000008152600401610d4490611f17565b60405180910390fd5b60005b600880549050811015610ee1578273ffffffffffffffffffffffffffffffffffffffff1660088281548110610d8857610d87611dc2565b5b9060005260206000200160009054906101000a900473ffffffffffffffffffffffffffffffffffffffff1673ffffffffffffffffffffffffffffffffffffffff1603610ece5760006001600880549050610de29190611f37565b9050600060088281548110610dfa57610df9611dc2565b5b9060005260206000200160009054906101000a900473ffffffffffffffffffffffffffffffffffffffff1690508060088481548110610e3c57610e3b611dc2565b5b9060005260206000200160006101000a81548173ffffffffffffffffffffffffffffffffffffffff021916908373ffffffffffffffffffffffffffffffffffffffff1602179055506008805480610e9657610e95611f6b565b5b6001900381819060005260206000200160006101000a81549073ffffffffffffffffffffffffffffffffffffffff0219169055905550505b8080610ed990611df1565b915050610d50565b5060018054610ef09190611f37565b600181905550600960008373ffffffffffffffffffffffffffffffffffffffff1673ffffffffffffffffffffffffffffffffffffffff1681526020019081526020016000206000905560019050919050565b600a6020528060005260406000206000915090505481565b6000600460009054906101000a900460ff1615610fac576040517f08c379a0000000000000000000000000000000000000000000000000000000008152600401610fa390611fe6565b60405180910390fd5b6001600460006101000a81548160ff0219169083151502179055506001905090565b60015481565b60078181548110610fe457600080fd5b906000526020600020016000915054906101000a900473ffffffffffffffffffffffffffffffffffffffff1681565b6000600b60009054906101000a900473ffffffffffffffffffffffffffffffffffffffff1673ffffffffffffffffffffffffffffffffffffffff163373ffffffffffffffffffffffffffffffffffffffff161461106f57600080fd5b600460009054906101000a900460ff166110be576040517f08c379a00000000000000000000000000000000000000000000000000000000081526004016110b590612052565b60405180910390fd5b6000600a60008473ffffffffffffffffffffffffffffffffffffffff1673ffffffffffffffffffffffffffffffffffffffff1681526020019081526020016000205411611140576040517f08c379a0000000000000000000000000000000000000000000000000000000008152600401611137906120be565b60405180910390fd5b600a60008373ffffffffffffffffffffffffffffffffffffffff1673ffffffffffffffffffffffffffffffffffffffff16815260200190815260200160002054600960008573ffffffffffffffffffffffffffffffffffffffff1673ffffffffffffffffffffffffffffffffffffffff168152602001908152602001600020546111ca9190611bfe565b600960008573ffffffffffffffffffffffffffffffffffffffff1673ffffffffffffffffffffffffffffffffffffffff168152602001908152602001600020819055506000600a60008473ffffffffffffffffffffffffffffffffffffffff1673ffffffffffffffffffffffffffffffffffffffff1681526020019081526020016000208190555060016002546112619190611bfe565b6002819055507f371bfe7bf83b122a53e3e861e2ac33ffea98c974348a3d7f4c6e819f18775e8683600960008673ffffffffffffffffffffffffffffffffffffffff1673ffffffffffffffffffffffffffffffffffffffff168152602001908152602001600020546040516112d79291906120de565b60405180910390a16001905092915050565b600380546112f690612136565b80601f016020809104026020016040519081016040528092919081815260200182805461132290612136565b801561136f5780601f106113445761010080835404028352916020019161136f565b820191906000526020600020905b81548152906001019060200180831161135257829003601f168201915b505050505081565b60096020528060005260406000206000915090505481565b6000600b60009054906101000a900473ffffffffffffffffffffffffffffffffffffffff1673ffffffffffffffffffffffffffffffffffffffff163373ffffffffffffffffffffffffffffffffffffffff1614611421576040517f08c379a000000000000000000000000000000000000000000000000000000000815260040161141890611eab565b60405180910390fd5b3373ffffffffffffffffffffffffffffffffffffffff168473ffffffffffffffffffffffffffffffffffffffff160361145957600080fd5b600560008573ffffffffffffffffffffffffffffffffffffffff1673ffffffffffffffffffffffffffffffffffffffff16815260200190815260200160002060009054906101000a900460ff16156114e6576040517f08c379a00000000000000000000000000000000000000000000000000000000081526004016114dd90611f17565b60405180910390fd5b6008849080600181540180825580915050600190039060005260206000200160009091909190916101000a81548173ffffffffffffffffffffffffffffffffffffffff021916908373ffffffffffffffffffffffffffffffffffffffff1602179055506000600960008673ffffffffffffffffffffffffffffffffffffffff1673ffffffffffffffffffffffffffffffffffffffff168152602001908152602001600020819055506001805461159c9190611bfe565b6001819055507f54e7ff62d1db51c778b14e046924023d0883d713d3464796674aad4e3ff505998484846040516115d593929190612167565b60405180910390a1600190509392505050565b600881815481106115f857600080fd5b906000526020600020016000915054906101000a900473ffffffffffffffffffffffffffffffffffffffff1681565b6000604051905090565b600080fd5b600080fd5b6000819050919050565b61164e8161163b565b811461165957600080fd5b50565b60008135905061166b81611645565b92915050565b60006020828403121561168757611686611631565b5b60006116958482850161165c565b91505092915050565b600073ffffffffffffffffffffffffffffffffffffffff82169050919050565b60006116c98261169e565b9050919050565b6116d9816116be565b82525050565b60006020820190506116f460008301846116d0565b92915050565b611703816116be565b811461170e57600080fd5b50565b600081359050611720816116fa565b92915050565b60006020828403121561173c5761173b611631565b5b600061174a84828501611711565b91505092915050565b60008115159050919050565b61176881611753565b82525050565b6000602082019050611783600083018461175f565b92915050565b6117928161163b565b82525050565b60006020820190506117ad6000830184611789565b92915050565b600080604083850312156117ca576117c9611631565b5b60006117d885828601611711565b92505060206117e985828601611711565b9150509250929050565b600081519050919050565b600082825260208201905092915050565b60005b8381101561182d578082015181840152602081019050611812565b60008484015250505050565b6000601f19601f8301169050919050565b6000611855826117f3565b61185f81856117fe565b935061186f81856020860161180f565b61187881611839565b840191505092915050565b6000602082019050818103600083015261189d818461184a565b905092915050565b600080fd5b600080fd5b7f4e487b7100000000000000000000000000000000000000000000000000000000600052604160045260246000fd5b6118e782611839565b810181811067ffffffffffffffff82111715611906576119056118af565b5b80604052505050565b6000611919611627565b905061192582826118de565b919050565b600067ffffffffffffffff821115611945576119446118af565b5b61194e82611839565b9050602081019050919050565b82818337600083830152505050565b600061197d6119788461192a565b61190f565b905082815260208101848484011115611999576119986118aa565b5b6119a484828561195b565b509392505050565b600082601f8301126119c1576119c06118a5565b5b81356119d184826020860161196a565b91505092915050565b6000806000606084860312156119f3576119f2611631565b5b6000611a0186828701611711565b935050602084013567ffffffffffffffff811115611a2257611a21611636565b5b611a2e868287016119ac565b925050604084013567ffffffffffffffff811115611a4f57611a4e611636565b5b611a5b868287016119ac565b9150509250925092565b7f456c656374696f6e436f6d6d6973696f6e2063616e206f6e6c792063616c6c2060008201527f746869732066756e6374696f6e00000000000000000000000000000000000000602082015250565b6000611ac1602d836117fe565b9150611acc82611a65565b604082019050919050565b60006020820190508181036000830152611af081611ab4565b9050919050565b7f456c656374696f6e436f6d6d6973696f6e2063616e6e6f7420766f7465000000600082015250565b6000611b2d601d836117fe565b9150611b3882611af7565b602082019050919050565b60006020820190508181036000830152611b5c81611b20565b9050919050565b7f426c61636b6c6973746564206164647265737300000000000000000000000000600082015250565b6000611b996013836117fe565b9150611ba482611b63565b602082019050919050565b60006020820190508181036000830152611bc881611b8c565b9050919050565b7f4e487b7100000000000000000000000000000000000000000000000000000000600052601160045260246000fd5b6000611c098261163b565b9150611c148361163b565b9250828201905080821115611c2c57611c2b611bcf565b5b92915050565b7f20566f74696e67206973206e6f74207374617274656400000000000000000000600082015250565b6000611c686016836117fe565b9150611c7382611c32565b602082019050919050565b60006020820190508181036000830152611c9781611c5b565b9050919050565b7f4f6e6c7920456c656374696f6e436f6d6d6973696f6e20616c7265616479206260008201527f6c61636b6c69737465642e000000000000000000000000000000000000000000602082015250565b6000611cfa602b836117fe565b9150611d0582611c9e565b604082019050919050565b60006020820190508181036000830152611d2981611ced565b9050919050565b7f54686973206164647265737320697320616c726561647920426c61636b6c697360008201527f7465640000000000000000000000000000000000000000000000000000000000602082015250565b6000611d8c6023836117fe565b9150611d9782611d30565b604082019050919050565b60006020820190508181036000830152611dbb81611d7f565b9050919050565b7f4e487b7100000000000000000000000000000000000000000000000000000000600052603260045260246000fd5b6000611dfc8261163b565b91507fffffffffffffffffffffffffffffffffffffffffffffffffffffffffffffffff8203611e2e57611e2d611bcf565b5b600182019050919050565b7f4f6e6c7920456c656374696f6e436f6d6d6973696f6e2063616e2063616c6c2060008201527f746869732066756e6374696f6e2e000000000000000000000000000000000000602082015250565b6000611e95602e836117fe565b9150611ea082611e39565b604082019050919050565b60006020820190508181036000830152611ec481611e88565b9050919050565b7f54686973206164647265737320697320426c61636b6c69737465640000000000600082015250565b6000611f01601b836117fe565b9150611f0c82611ecb565b602082019050919050565b60006020820190508181036000830152611f3081611ef4565b9050919050565b6000611f428261163b565b9150611f4d8361163b565b9250828203905081811115611f6557611f64611bcf565b5b92915050565b7f4e487b7100000000000000000000000000000000000000000000000000000000600052603160045260246000fd5b7f20566f74696e6720616c72656164792073746172746564000000000000000000600082015250565b6000611fd06017836117fe565b9150611fdb82611f9a565b602082019050919050565b60006020820190508181036000830152611fff81611fc3565b9050919050565b7f566f74696e6720686173206e6f74207374617274656400000000000000000000600082015250565b600061203c6016836117fe565b915061204782612006565b602082019050919050565b6000602082019050818103600083015261206b8161202f565b9050919050565b7f496e73756666696369656e742062616c616e63652e0000000000000000000000600082015250565b60006120a86015836117fe565b91506120b382612072565b602082019050919050565b600060208201905081810360008301526120d78161209b565b9050919050565b60006040820190506120f360008301856116d0565b6121006020830184611789565b9392505050565b7f4e487b7100000000000000000000000000000000000000000000000000000000600052602260045260246000fd5b6000600282049050600182168061214e57607f821691505b60208210810361216157612160612107565b5b50919050565b600060608201905061217c60008301866116d0565b818103602083015261218e818561184a565b905081810360408301526121a2818461184a565b905094935050505056fea2646970667358221220b272a166dc5422ea89c470f2531713a00568e294df3115cef2406db5fc11b32664736f6c63430008110033",
  "immutableReferences": {},
  "source": "// SPDX-License-Identifier: MIT\r\npragma solidity^0.8.17 ; \r\ncontract VoteToken { \r\n   uint256 public  VoterCount  ; \r\n   uint256 public  CandidateCount  ; \r\n   uint256 public  TotalVoteCount  ; \r\n   string  public TokenName = \"Maat\" ; \r\n   bool votingStarted = false ; \r\n   mapping(address => bool) public  BlacklistVoters ; \r\n   mapping(uint256 => address) public  VoterList ; \r\n   address[] public  Voters ; \r\n   address[] public  Candidate ; \r\n   mapping(address => uint256) public  VoteCount ; \r\n   event VoterAdded(address voter) ; \r\n   event CandidateData(address candidate , uint256 count);\r\n   event CandidateList(address candidate , string image ,string residence );\r\n   mapping(address => uint256) public balanceOf ; \r\n   address public  ElectionCommission;\r\n   constructor(){\r\n        ElectionCommission = msg.sender ; \r\n        BlacklistVoters[msg.sender] = true ;\r\n     }\r\n   function addCandidate(address _candidate , string memory image , string memory residence) public returns (bool) {\r\n         require(msg.sender == ElectionCommission , \"Only ElectionCommision can call this function.\");\r\n         require( _candidate != msg.sender) ; \r\n         require(!BlacklistVoters[_candidate] , \"This address is Blacklisted\");\r\n         Candidate.push(_candidate) ; \r\n         VoteCount[_candidate] = 0 ;\r\n         CandidateCount = CandidateCount + 1 ; \r\n         emit CandidateList(_candidate ,  image , residence );\r\n\r\n         return true;\r\n     }\r\n\r\n     function removeCandidate(address _candidate ) public returns (bool) {\r\n         require(msg.sender == ElectionCommission , \"Only ElectionCommision can call this function.\");\r\n         require( _candidate != msg.sender) ; \r\n         require(!BlacklistVoters[_candidate] , \"This address is Blacklisted\");\r\n         for(uint256 i = 0 ; i < Candidate.length ; i ++){\r\n            if(Candidate[i] == _candidate){\r\n               uint256 lastIndex = Candidate.length  -1 ; \r\n               address lastAddress = Candidate[lastIndex];\r\n               Candidate[i] = lastAddress ; \r\n               Candidate.pop();\r\n         }}\r\n                  CandidateCount = CandidateCount - 1 ; \r\n\r\n         delete VoteCount[_candidate] ; \r\n         return true;\r\n     }\r\n\r\n      function addToBlackList(address _person ) public returns (bool) {\r\n         require(msg.sender == ElectionCommission , \"Only ElectionCommision already blacklisted.\");\r\n         require(!BlacklistVoters[_person] , \"This address is already Blacklisted\");\r\n         BlacklistVoters[_person] = true  ; \r\n         return true;\r\n     }\r\n\r\n  \r\n     function AddVoter(address _voter) public   returns (bool) {\r\n        require( msg.sender == ElectionCommission , \"ElectionCommision can only call this function\");\r\n        require( _voter != ElectionCommission , \"ElectionCommision cannot vote\");\r\n        require( !BlacklistVoters[_voter] , \"Blacklisted address\");\r\n        VoterCount = VoterCount + 1 ; \r\n        VoterList[VoterCount] = _voter ; \r\n        Voters.push(_voter);\r\n        balanceOf[_voter] = 1 ; \r\n      emit VoterAdded(_voter) ; \r\n\r\n      return true ; \r\n\r\n     }\r\n\r\n     function StartVoting() public returns (bool) {\r\n      require(!votingStarted , \" Voting already started\");\r\n      votingStarted = true ; \r\n      return true;\r\n      \r\n     }\r\n\r\n\r\n     function StopVoting() public returns (bool) {\r\n      require(votingStarted , \" Voting is not started\");\r\n      votingStarted = false ; \r\n      return true;\r\n      \r\n     }\r\n\r\n     function Reset() public returns (bool) {\r\n      require( msg.sender == ElectionCommission , \"ElectionCommision can only call this function\");\r\n      for(uint256 i = 0 ; i < Voters.length ; i++){\r\n         balanceOf[Voters[i]] = 1 ; \r\n      }\r\n      for(uint256 i = 0 ; i < Candidate.length ; i++){\r\n         VoteCount[Candidate[i]] = 0 ; \r\n      }\r\n      require(votingStarted , \" Voting is not started\");\r\n      votingStarted = false ; \r\n      TotalVoteCount = 0 ;\r\n      return true;\r\n      \r\n     }\r\n\r\n     function Vote(address _candidate , address _voter) public returns (bool) { \r\n            require (msg.sender == ElectionCommission);\r\n            require(votingStarted , \"Voting has not started\");\r\n            require(balanceOf[_voter] > 0 , \"Insufficient balance.\");\r\n            VoteCount[_candidate] = VoteCount[_candidate] + balanceOf[_voter] ; \r\n            balanceOf[_voter] = 0 ; \r\n            TotalVoteCount = TotalVoteCount + 1 ; \r\n            emit CandidateData( _candidate , VoteCount[_candidate]);\r\n            return true ; \r\n     }\r\n}",
  "sourcePath": "C:\\Users\\9165p\\OneDrive\\Desktop\\OnChain Voting\\votingSys\\src\\contracts\\VoteToken.sol",
  "compiler": {
    "name": "solc",
    "version": "0.8.17+commit.8df45f5f.Emscripten.clang"
  },
  "schemaVersion": "3.4.10",
  "updatedAt": "2022-12-08T17:34:26.334Z",
  "networkType": "ethereum",
  "devdoc": {
    "kind": "dev",
    "methods": {},
    "version": 1
  },
  "userdoc": {
    "kind": "user",
    "methods": {},
    "version": 1
  }
}