{
  "contractName": "VoteToken",
  "abi": [
    {
      "inputs": [],
      "stateMutability": "nonpayable",
      "type": "constructor"
    },
    {
      "anonymous": false,
      "inputs": [
        {
          "indexed": false,
          "internalType": "address",
          "name": "candidate",
          "type": "address"
        },
        {
          "indexed": false,
          "internalType": "uint256",
          "name": "count",
          "type": "uint256"
        }
      ],
      "name": "CandidateData",
      "type": "event"
    },
    {
      "anonymous": false,
      "inputs": [
        {
          "indexed": false,
          "internalType": "address",
          "name": "candidate",
          "type": "address"
        },
        {
          "indexed": false,
          "internalType": "string",
          "name": "image",
          "type": "string"
        },
        {
          "indexed": false,
          "internalType": "string",
          "name": "residence",
          "type": "string"
        }
      ],
      "name": "CandidateList",
      "type": "event"
    },
    {
      "anonymous": false,
      "inputs": [
        {
          "indexed": false,
          "internalType": "address",
          "name": "voter",
          "type": "address"
        }
      ],
      "name": "VoterAdded",
      "type": "event"
    },
    {
      "inputs": [
        {
          "internalType": "address",
          "name": "",
          "type": "address"
        }
      ],
      "name": "BlacklistVoters",
      "outputs": [
        {
          "internalType": "bool",
          "name": "",
          "type": "bool"
        }
      ],
      "stateMutability": "view",
      "type": "function",
      "constant": true
    },
    {
      "inputs": [
        {
          "internalType": "uint256",
          "name": "",
          "type": "uint256"
        }
      ],
      "name": "Candidate",
      "outputs": [
        {
          "internalType": "address",
          "name": "",
          "type": "address"
        }
      ],
      "stateMutability": "view",
      "type": "function",
      "constant": true
    },
    {
      "inputs": [],
      "name": "ElectionCommission",
      "outputs": [
        {
          "internalType": "address",
          "name": "",
          "type": "address"
        }
      ],
      "stateMutability": "view",
      "type": "function",
      "constant": true
    },
    {
      "inputs": [],
      "name": "TokenName",
      "outputs": [
        {
          "internalType": "string",
          "name": "",
          "type": "string"
        }
      ],
      "stateMutability": "view",
      "type": "function",
      "constant": true
    },
    {
      "inputs": [],
      "name": "TotalVoteCount",
      "outputs": [
        {
          "internalType": "uint256",
          "name": "",
          "type": "uint256"
        }
      ],
      "stateMutability": "view",
      "type": "function",
      "constant": true
    },
    {
      "inputs": [
        {
          "internalType": "address",
          "name": "",
          "type": "address"
        }
      ],
      "name": "VoteCount",
      "outputs": [
        {
          "internalType": "uint256",
          "name": "",
          "type": "uint256"
        }
      ],
      "stateMutability": "view",
      "type": "function",
      "constant": true
    },
    {
      "inputs": [],
      "name": "VoterCount",
      "outputs": [
        {
          "internalType": "uint256",
          "name": "",
          "type": "uint256"
        }
      ],
      "stateMutability": "view",
      "type": "function",
      "constant": true
    },
    {
      "inputs": [
        {
          "internalType": "uint256",
          "name": "",
          "type": "uint256"
        }
      ],
      "name": "VoterList",
      "outputs": [
        {
          "internalType": "address",
          "name": "",
          "type": "address"
        }
      ],
      "stateMutability": "view",
      "type": "function",
      "constant": true
    },
    {
      "inputs": [
        {
          "internalType": "uint256",
          "name": "",
          "type": "uint256"
        }
      ],
      "name": "Voters",
      "outputs": [
        {
          "internalType": "address",
          "name": "",
          "type": "address"
        }
      ],
      "stateMutability": "view",
      "type": "function",
      "constant": true
    },
    {
      "inputs": [
        {
          "internalType": "address",
          "name": "",
          "type": "address"
        }
      ],
      "name": "balanceOf",
      "outputs": [
        {
          "internalType": "uint256",
          "name": "",
          "type": "uint256"
        }
      ],
      "stateMutability": "view",
      "type": "function",
      "constant": true
    },
    {
      "inputs": [
        {
          "internalType": "address",
          "name": "_candidate",
          "type": "address"
        },
        {
          "internalType": "string",
          "name": "image",
          "type": "string"
        },
        {
          "internalType": "string",
          "name": "residence",
          "type": "string"
        }
      ],
      "name": "addCandidate",
      "outputs": [
        {
          "internalType": "bool",
          "name": "",
          "type": "bool"
        }
      ],
      "stateMutability": "nonpayable",
      "type": "function"
    },
    {
      "inputs": [
        {
          "internalType": "address",
          "name": "_candidate",
          "type": "address"
        }
      ],
      "name": "removeCandidate",
      "outputs": [
        {
          "internalType": "bool",
          "name": "",
          "type": "bool"
        }
      ],
      "stateMutability": "nonpayable",
      "type": "function"
    },
    {
      "inputs": [
        {
          "internalType": "address",
          "name": "_person",
          "type": "address"
        }
      ],
      "name": "addToBlackList",
      "outputs": [
        {
          "internalType": "bool",
          "name": "",
          "type": "bool"
        }
      ],
      "stateMutability": "nonpayable",
      "type": "function"
    },
    {
      "inputs": [
        {
          "internalType": "address",
          "name": "_voter",
          "type": "address"
        }
      ],
      "name": "AddVoter",
      "outputs": [
        {
          "internalType": "bool",
          "name": "",
          "type": "bool"
        }
      ],
      "stateMutability": "nonpayable",
      "type": "function"
    },
    {
      "inputs": [],
      "name": "StartVoting",
      "outputs": [
        {
          "internalType": "bool",
          "name": "",
          "type": "bool"
        }
      ],
      "stateMutability": "nonpayable",
      "type": "function"
    },
    {
      "inputs": [],
      "name": "StopVoting",
      "outputs": [
        {
          "internalType": "bool",
          "name": "",
          "type": "bool"
        }
      ],
      "stateMutability": "nonpayable",
      "type": "function"
    },
    {
      "inputs": [],
      "name": "Reset",
      "outputs": [
        {
          "internalType": "bool",
          "name": "",
          "type": "bool"
        }
      ],
      "stateMutability": "nonpayable",
      "type": "function"
    },
    {
      "inputs": [
        {
          "internalType": "address",
          "name": "_candidate",
          "type": "address"
        },
        {
          "internalType": "address",
          "name": "_voter",
          "type": "address"
        }
      ],
      "name": "Vote",
      "outputs": [
        {
          "internalType": "bool",
          "name": "",
          "type": "bool"
        }
      ],
      "stateMutability": "nonpayable",
      "type": "function"
    }
  ],
  "bytecode": "0x60806040526040518060400160405280600481526020017f4d61617400000000000000000000000000000000000000000000000000000000815250600290816200004a91906200038d565b506000600360006101000a81548160ff0219169083151502179055503480156200007357600080fd5b5033600a60006101000a81548173ffffffffffffffffffffffffffffffffffffffff021916908373ffffffffffffffffffffffffffffffffffffffff1602179055506001600460003373ffffffffffffffffffffffffffffffffffffffff1673ffffffffffffffffffffffffffffffffffffffff16815260200190815260200160002060006101000a81548160ff02191690831515021790555062000474565b600081519050919050565b7f4e487b7100000000000000000000000000000000000000000000000000000000600052604160045260246000fd5b7f4e487b7100000000000000000000000000000000000000000000000000000000600052602260045260246000fd5b600060028204905060018216806200019557607f821691505b602082108103620001ab57620001aa6200014d565b5b50919050565b60008190508160005260206000209050919050565b60006020601f8301049050919050565b600082821b905092915050565b600060088302620002157fffffffffffffffffffffffffffffffffffffffffffffffffffffffffffffffff82620001d6565b620002218683620001d6565b95508019841693508086168417925050509392505050565b6000819050919050565b6000819050919050565b60006200026e62000268620002628462000239565b62000243565b62000239565b9050919050565b6000819050919050565b6200028a836200024d565b620002a2620002998262000275565b848454620001e3565b825550505050565b600090565b620002b9620002aa565b620002c68184846200027f565b505050565b5b81811015620002ee57620002e2600082620002af565b600181019050620002cc565b5050565b601f8211156200033d576200030781620001b1565b6200031284620001c6565b8101602085101562000322578190505b6200033a6200033185620001c6565b830182620002cb565b50505b505050565b600082821c905092915050565b6000620003626000198460080262000342565b1980831691505092915050565b60006200037d83836200034f565b9150826002028217905092915050565b620003988262000113565b67ffffffffffffffff811115620003b457620003b36200011e565b5b620003c082546200017c565b620003cd828285620002f2565b600060209050601f831160018114620004055760008415620003f0578287015190505b620003fc85826200036f565b8655506200046c565b601f1984166200041586620001b1565b60005b828110156200043f5784890151825560018201915060208501945060208101905062000418565b868310156200045f57848901516200045b601f8916826200034f565b8355505b6001600288020188555050505b505050505050565b61218a80620004846000396000f3fe608060405234801561001057600080fd5b50600436106101165760003560e01c80636dd091f9116100a2578063a54b4b5511610071578063a54b4b551461031f578063b6d7855a1461034f578063d82d4eb91461036d578063e22a62311461039d578063e2f11b9c146103cd57610116565b80636dd091f91461027157806370a08231146102a15780637a99c0a6146102d15780639c35d98b146102ef57610116565b806331b2606d116100e957806331b2606d146101c957806336f49cd7146101e7578063417c73a7146102055780636423db3414610235578063643e94c41461025357610116565b806303a0d5351461011b5780630ad2eca71461014b5780632b1647491461017b5780632e46fb9a146101ab575b600080fd5b61013560048036038101906101309190611619565b6103fd565b6040516101429190611687565b60405180910390f35b610165600480360381019061016091906116ce565b610430565b6040516101729190611716565b60405180910390f35b610195600480360381019061019091906116ce565b61072f565b6040516101a29190611716565b60405180910390f35b6101b361074f565b6040516101c09190611740565b60405180910390f35b6101d1610755565b6040516101de9190611740565b60405180910390f35b6101ef61075b565b6040516101fc9190611716565b60405180910390f35b61021f600480360381019061021a91906116ce565b6107ce565b60405161022c9190611716565b60405180910390f35b61023d61094e565b60405161024a9190611716565b60405180910390f35b61025b610ba7565b6040516102689190611687565b60405180910390f35b61028b600480360381019061028691906116ce565b610bcd565b6040516102989190611716565b60405180910390f35b6102bb60048036038101906102b691906116ce565b610f05565b6040516102c89190611740565b60405180910390f35b6102d9610f1d565b6040516102e69190611716565b60405180910390f35b61030960048036038101906103049190611619565b610f91565b6040516103169190611687565b60405180910390f35b6103396004803603810190610334919061175b565b610fd0565b6040516103469190611716565b60405180910390f35b6103576112a5565b604051610364919061182b565b60405180910390f35b610387600480360381019061038291906116ce565b611333565b6040516103949190611740565b60405180910390f35b6103b760048036038101906103b29190611982565b61134b565b6040516103c49190611716565b60405180910390f35b6103e760048036038101906103e29190611619565b611590565b6040516103f49190611687565b60405180910390f35b60056020528060005260406000206000915054906101000a900473ffffffffffffffffffffffffffffffffffffffff1681565b6000600a60009054906101000a900473ffffffffffffffffffffffffffffffffffffffff1673ffffffffffffffffffffffffffffffffffffffff163373ffffffffffffffffffffffffffffffffffffffff16146104c2576040517f08c379a00000000000000000000000000000000000000000000000000000000081526004016104b990611a7f565b60405180910390fd5b600a60009054906101000a900473ffffffffffffffffffffffffffffffffffffffff1673ffffffffffffffffffffffffffffffffffffffff168273ffffffffffffffffffffffffffffffffffffffff1603610552576040517f08c379a000000000000000000000000000000000000000000000000000000000815260040161054990611aeb565b60405180910390fd5b600460008373ffffffffffffffffffffffffffffffffffffffff1673ffffffffffffffffffffffffffffffffffffffff16815260200190815260200160002060009054906101000a900460ff16156105df576040517f08c379a00000000000000000000000000000000000000000000000000000000081526004016105d690611b57565b60405180910390fd5b60016000546105ee9190611ba6565b60008190555081600560008054815260200190815260200160002060006101000a81548173ffffffffffffffffffffffffffffffffffffffff021916908373ffffffffffffffffffffffffffffffffffffffff1602179055506006829080600181540180825580915050600190039060005260206000200160009091909190916101000a81548173ffffffffffffffffffffffffffffffffffffffff021916908373ffffffffffffffffffffffffffffffffffffffff1602179055506001600960008473ffffffffffffffffffffffffffffffffffffffff1673ffffffffffffffffffffffffffffffffffffffff168152602001908152602001600020819055507fa636f4a11e2d3ba7f89d042ecb0a6b886716e98cd49d8fd876ee0f73bced42b88260405161071e9190611687565b60405180910390a160019050919050565b60046020528060005260406000206000915054906101000a900460ff1681565b60005481565b60015481565b6000600360009054906101000a900460ff166107ac576040517f08c379a00000000000000000000000000000000000000000000000000000000081526004016107a390611c26565b60405180910390fd5b6000600360006101000a81548160ff0219169083151502179055506001905090565b6000600a60009054906101000a900473ffffffffffffffffffffffffffffffffffffffff1673ffffffffffffffffffffffffffffffffffffffff163373ffffffffffffffffffffffffffffffffffffffff1614610860576040517f08c379a000000000000000000000000000000000000000000000000000000000815260040161085790611cb8565b60405180910390fd5b600460008373ffffffffffffffffffffffffffffffffffffffff1673ffffffffffffffffffffffffffffffffffffffff16815260200190815260200160002060009054906101000a900460ff16156108ed576040517f08c379a00000000000000000000000000000000000000000000000000000000081526004016108e490611d4a565b60405180910390fd5b6001600460008473ffffffffffffffffffffffffffffffffffffffff1673ffffffffffffffffffffffffffffffffffffffff16815260200190815260200160002060006101000a81548160ff02191690831515021790555060019050919050565b6000600a60009054906101000a900473ffffffffffffffffffffffffffffffffffffffff1673ffffffffffffffffffffffffffffffffffffffff163373ffffffffffffffffffffffffffffffffffffffff16146109e0576040517f08c379a00000000000000000000000000000000000000000000000000000000081526004016109d790611a7f565b60405180910390fd5b60005b600680549050811015610a865760016009600060068481548110610a0a57610a09611d6a565b5b9060005260206000200160009054906101000a900473ffffffffffffffffffffffffffffffffffffffff1673ffffffffffffffffffffffffffffffffffffffff1673ffffffffffffffffffffffffffffffffffffffff168152602001908152602001600020819055508080610a7e90611d99565b9150506109e3565b5060005b600780549050811015610b2d5760006008600060078481548110610ab157610ab0611d6a565b5b9060005260206000200160009054906101000a900473ffffffffffffffffffffffffffffffffffffffff1673ffffffffffffffffffffffffffffffffffffffff1673ffffffffffffffffffffffffffffffffffffffff168152602001908152602001600020819055508080610b2590611d99565b915050610a8a565b50600360009054906101000a900460ff16610b7d576040517f08c379a0000000000000000000000000000000000000000000000000000000008152600401610b7490611c26565b60405180910390fd5b6000600360006101000a81548160ff02191690831515021790555060006001819055506001905090565b600a60009054906101000a900473ffffffffffffffffffffffffffffffffffffffff1681565b6000600a60009054906101000a900473ffffffffffffffffffffffffffffffffffffffff1673ffffffffffffffffffffffffffffffffffffffff163373ffffffffffffffffffffffffffffffffffffffff1614610c5f576040517f08c379a0000000000000000000000000000000000000000000000000000000008152600401610c5690611e53565b60405180910390fd5b3373ffffffffffffffffffffffffffffffffffffffff168273ffffffffffffffffffffffffffffffffffffffff1603610c9757600080fd5b600460008373ffffffffffffffffffffffffffffffffffffffff1673ffffffffffffffffffffffffffffffffffffffff16815260200190815260200160002060009054906101000a900460ff1615610d24576040517f08c379a0000000000000000000000000000000000000000000000000000000008152600401610d1b90611ebf565b60405180910390fd5b60005b600780549050811015610eb8578273ffffffffffffffffffffffffffffffffffffffff1660078281548110610d5f57610d5e611d6a565b5b9060005260206000200160009054906101000a900473ffffffffffffffffffffffffffffffffffffffff1673ffffffffffffffffffffffffffffffffffffffff1603610ea55760006001600780549050610db99190611edf565b9050600060078281548110610dd157610dd0611d6a565b5b9060005260206000200160009054906101000a900473ffffffffffffffffffffffffffffffffffffffff1690508060078481548110610e1357610e12611d6a565b5b9060005260206000200160006101000a81548173ffffffffffffffffffffffffffffffffffffffff021916908373ffffffffffffffffffffffffffffffffffffffff1602179055506007805480610e6d57610e6c611f13565b5b6001900381819060005260206000200160006101000a81549073ffffffffffffffffffffffffffffffffffffffff0219169055905550505b8080610eb090611d99565b915050610d27565b50600860008373ffffffffffffffffffffffffffffffffffffffff1673ffffffffffffffffffffffffffffffffffffffff1681526020019081526020016000206000905560019050919050565b60096020528060005260406000206000915090505481565b6000600360009054906101000a900460ff1615610f6f576040517f08c379a0000000000000000000000000000000000000000000000000000000008152600401610f6690611f8e565b60405180910390fd5b6001600360006101000a81548160ff0219169083151502179055506001905090565b60068181548110610fa157600080fd5b906000526020600020016000915054906101000a900473ffffffffffffffffffffffffffffffffffffffff1681565b6000600a60009054906101000a900473ffffffffffffffffffffffffffffffffffffffff1673ffffffffffffffffffffffffffffffffffffffff163373ffffffffffffffffffffffffffffffffffffffff161461102c57600080fd5b600360009054906101000a900460ff1661107b576040517f08c379a000000000000000000000000000000000000000000000000000000000815260040161107290611ffa565b60405180910390fd5b6000600960008473ffffffffffffffffffffffffffffffffffffffff1673ffffffffffffffffffffffffffffffffffffffff16815260200190815260200160002054116110fd576040517f08c379a00000000000000000000000000000000000000000000000000000000081526004016110f490612066565b60405180910390fd5b600960008373ffffffffffffffffffffffffffffffffffffffff1673ffffffffffffffffffffffffffffffffffffffff16815260200190815260200160002054600860008573ffffffffffffffffffffffffffffffffffffffff1673ffffffffffffffffffffffffffffffffffffffff168152602001908152602001600020546111879190611ba6565b600860008573ffffffffffffffffffffffffffffffffffffffff1673ffffffffffffffffffffffffffffffffffffffff168152602001908152602001600020819055506000600960008473ffffffffffffffffffffffffffffffffffffffff1673ffffffffffffffffffffffffffffffffffffffff168152602001908152602001600020819055506001805461121d9190611ba6565b6001819055507f371bfe7bf83b122a53e3e861e2ac33ffea98c974348a3d7f4c6e819f18775e8683600860008673ffffffffffffffffffffffffffffffffffffffff1673ffffffffffffffffffffffffffffffffffffffff16815260200190815260200160002054604051611293929190612086565b60405180910390a16001905092915050565b600280546112b2906120de565b80601f01602080910402602001604051908101604052809291908181526020018280546112de906120de565b801561132b5780601f106113005761010080835404028352916020019161132b565b820191906000526020600020905b81548152906001019060200180831161130e57829003601f168201915b505050505081565b60086020528060005260406000206000915090505481565b6000600a60009054906101000a900473ffffffffffffffffffffffffffffffffffffffff1673ffffffffffffffffffffffffffffffffffffffff163373ffffffffffffffffffffffffffffffffffffffff16146113dd576040517f08c379a00000000000000000000000000000000000000000000000000000000081526004016113d490611e53565b60405180910390fd5b3373ffffffffffffffffffffffffffffffffffffffff168473ffffffffffffffffffffffffffffffffffffffff160361141557600080fd5b600460008573ffffffffffffffffffffffffffffffffffffffff1673ffffffffffffffffffffffffffffffffffffffff16815260200190815260200160002060009054906101000a900460ff16156114a2576040517f08c379a000000000000000000000000000000000000000000000000000000000815260040161149990611ebf565b60405180910390fd5b6007849080600181540180825580915050600190039060005260206000200160009091909190916101000a81548173ffffffffffffffffffffffffffffffffffffffff021916908373ffffffffffffffffffffffffffffffffffffffff1602179055506000600860008673ffffffffffffffffffffffffffffffffffffffff1673ffffffffffffffffffffffffffffffffffffffff168152602001908152602001600020819055507f54e7ff62d1db51c778b14e046924023d0883d713d3464796674aad4e3ff5059984848460405161157d9392919061210f565b60405180910390a1600190509392505050565b600781815481106115a057600080fd5b906000526020600020016000915054906101000a900473ffffffffffffffffffffffffffffffffffffffff1681565b6000604051905090565b600080fd5b600080fd5b6000819050919050565b6115f6816115e3565b811461160157600080fd5b50565b600081359050611613816115ed565b92915050565b60006020828403121561162f5761162e6115d9565b5b600061163d84828501611604565b91505092915050565b600073ffffffffffffffffffffffffffffffffffffffff82169050919050565b600061167182611646565b9050919050565b61168181611666565b82525050565b600060208201905061169c6000830184611678565b92915050565b6116ab81611666565b81146116b657600080fd5b50565b6000813590506116c8816116a2565b92915050565b6000602082840312156116e4576116e36115d9565b5b60006116f2848285016116b9565b91505092915050565b60008115159050919050565b611710816116fb565b82525050565b600060208201905061172b6000830184611707565b92915050565b61173a816115e3565b82525050565b60006020820190506117556000830184611731565b92915050565b60008060408385031215611772576117716115d9565b5b6000611780858286016116b9565b9250506020611791858286016116b9565b9150509250929050565b600081519050919050565b600082825260208201905092915050565b60005b838110156117d55780820151818401526020810190506117ba565b60008484015250505050565b6000601f19601f8301169050919050565b60006117fd8261179b565b61180781856117a6565b93506118178185602086016117b7565b611820816117e1565b840191505092915050565b6000602082019050818103600083015261184581846117f2565b905092915050565b600080fd5b600080fd5b7f4e487b7100000000000000000000000000000000000000000000000000000000600052604160045260246000fd5b61188f826117e1565b810181811067ffffffffffffffff821117156118ae576118ad611857565b5b80604052505050565b60006118c16115cf565b90506118cd8282611886565b919050565b600067ffffffffffffffff8211156118ed576118ec611857565b5b6118f6826117e1565b9050602081019050919050565b82818337600083830152505050565b6000611925611920846118d2565b6118b7565b90508281526020810184848401111561194157611940611852565b5b61194c848285611903565b509392505050565b600082601f8301126119695761196861184d565b5b8135611979848260208601611912565b91505092915050565b60008060006060848603121561199b5761199a6115d9565b5b60006119a9868287016116b9565b935050602084013567ffffffffffffffff8111156119ca576119c96115de565b5b6119d686828701611954565b925050604084013567ffffffffffffffff8111156119f7576119f66115de565b5b611a0386828701611954565b9150509250925092565b7f456c656374696f6e436f6d6d6973696f6e2063616e206f6e6c792063616c6c2060008201527f746869732066756e6374696f6e00000000000000000000000000000000000000602082015250565b6000611a69602d836117a6565b9150611a7482611a0d565b604082019050919050565b60006020820190508181036000830152611a9881611a5c565b9050919050565b7f456c656374696f6e436f6d6d6973696f6e2063616e6e6f7420766f7465000000600082015250565b6000611ad5601d836117a6565b9150611ae082611a9f565b602082019050919050565b60006020820190508181036000830152611b0481611ac8565b9050919050565b7f426c61636b6c6973746564206164647265737300000000000000000000000000600082015250565b6000611b416013836117a6565b9150611b4c82611b0b565b602082019050919050565b60006020820190508181036000830152611b7081611b34565b9050919050565b7f4e487b7100000000000000000000000000000000000000000000000000000000600052601160045260246000fd5b6000611bb1826115e3565b9150611bbc836115e3565b9250828201905080821115611bd457611bd3611b77565b5b92915050565b7f20566f74696e67206973206e6f74207374617274656400000000000000000000600082015250565b6000611c106016836117a6565b9150611c1b82611bda565b602082019050919050565b60006020820190508181036000830152611c3f81611c03565b9050919050565b7f4f6e6c7920456c656374696f6e436f6d6d6973696f6e20616c7265616479206260008201527f6c61636b6c69737465642e000000000000000000000000000000000000000000602082015250565b6000611ca2602b836117a6565b9150611cad82611c46565b604082019050919050565b60006020820190508181036000830152611cd181611c95565b9050919050565b7f54686973206164647265737320697320616c726561647920426c61636b6c697360008201527f7465640000000000000000000000000000000000000000000000000000000000602082015250565b6000611d346023836117a6565b9150611d3f82611cd8565b604082019050919050565b60006020820190508181036000830152611d6381611d27565b9050919050565b7f4e487b7100000000000000000000000000000000000000000000000000000000600052603260045260246000fd5b6000611da4826115e3565b91507fffffffffffffffffffffffffffffffffffffffffffffffffffffffffffffffff8203611dd657611dd5611b77565b5b600182019050919050565b7f4f6e6c7920456c656374696f6e436f6d6d6973696f6e2063616e2063616c6c2060008201527f746869732066756e6374696f6e2e000000000000000000000000000000000000602082015250565b6000611e3d602e836117a6565b9150611e4882611de1565b604082019050919050565b60006020820190508181036000830152611e6c81611e30565b9050919050565b7f54686973206164647265737320697320426c61636b6c69737465640000000000600082015250565b6000611ea9601b836117a6565b9150611eb482611e73565b602082019050919050565b60006020820190508181036000830152611ed881611e9c565b9050919050565b6000611eea826115e3565b9150611ef5836115e3565b9250828203905081811115611f0d57611f0c611b77565b5b92915050565b7f4e487b7100000000000000000000000000000000000000000000000000000000600052603160045260246000fd5b7f20566f74696e6720616c72656164792073746172746564000000000000000000600082015250565b6000611f786017836117a6565b9150611f8382611f42565b602082019050919050565b60006020820190508181036000830152611fa781611f6b565b9050919050565b7f566f74696e6720686173206e6f74207374617274656400000000000000000000600082015250565b6000611fe46016836117a6565b9150611fef82611fae565b602082019050919050565b6000602082019050818103600083015261201381611fd7565b9050919050565b7f496e73756666696369656e742062616c616e63652e0000000000000000000000600082015250565b60006120506015836117a6565b915061205b8261201a565b602082019050919050565b6000602082019050818103600083015261207f81612043565b9050919050565b600060408201905061209b6000830185611678565b6120a86020830184611731565b9392505050565b7f4e487b7100000000000000000000000000000000000000000000000000000000600052602260045260246000fd5b600060028204905060018216806120f657607f821691505b602082108103612109576121086120af565b5b50919050565b60006060820190506121246000830186611678565b818103602083015261213681856117f2565b9050818103604083015261214a81846117f2565b905094935050505056fea2646970667358221220f7a89feae12b5c15c64e2513afd7a5c252a2834f88ce95c1cc89fc8d73909fda64736f6c63430008110033",
  "immutableReferences": {},
  "source": "// SPDX-License-Identifier: MIT\r\npragma solidity^0.8.17 ; \r\ncontract VoteToken { \r\n   uint256 public  VoterCount  ; \r\n   uint256 public  TotalVoteCount  ; \r\n   string  public TokenName = \"Maat\" ; \r\n   bool votingStarted = false ; \r\n   mapping(address => bool) public  BlacklistVoters ; \r\n   mapping(uint256 => address) public  VoterList ; \r\n   address[] public  Voters ; \r\n   address[] public  Candidate ; \r\n   mapping(address => uint256) public  VoteCount ; \r\n   event VoterAdded(address voter) ; \r\n   event CandidateData(address candidate , uint256 count);\r\n   event CandidateList(address candidate , string image ,string residence );\r\n   mapping(address => uint256) public balanceOf ; \r\n   address public  ElectionCommission;\r\n   constructor(){\r\n        ElectionCommission = msg.sender ; \r\n        BlacklistVoters[msg.sender] = true ;\r\n     }\r\n   function addCandidate(address _candidate , string memory image , string memory residence) public returns (bool) {\r\n         require(msg.sender == ElectionCommission , \"Only ElectionCommision can call this function.\");\r\n         require( _candidate != msg.sender) ; \r\n         require(!BlacklistVoters[_candidate] , \"This address is Blacklisted\");\r\n         Candidate.push(_candidate) ; \r\n         VoteCount[_candidate] = 0 ;\r\n         emit CandidateList(_candidate ,  image , residence );\r\n\r\n         return true;\r\n     }\r\n\r\n     function removeCandidate(address _candidate ) public returns (bool) {\r\n         require(msg.sender == ElectionCommission , \"Only ElectionCommision can call this function.\");\r\n         require( _candidate != msg.sender) ; \r\n         require(!BlacklistVoters[_candidate] , \"This address is Blacklisted\");\r\n         for(uint256 i = 0 ; i < Candidate.length ; i ++){\r\n            if(Candidate[i] == _candidate){\r\n               uint256 lastIndex = Candidate.length  -1 ; \r\n               address lastAddress = Candidate[lastIndex];\r\n               Candidate[i] = lastAddress ; \r\n               Candidate.pop();\r\n         }}\r\n         delete VoteCount[_candidate] ; \r\n         return true;\r\n     }\r\n\r\n      function addToBlackList(address _person ) public returns (bool) {\r\n         require(msg.sender == ElectionCommission , \"Only ElectionCommision already blacklisted.\");\r\n         require(!BlacklistVoters[_person] , \"This address is already Blacklisted\");\r\n         BlacklistVoters[_person] = true  ; \r\n         return true;\r\n     }\r\n\r\n  \r\n     function AddVoter(address _voter) public   returns (bool) {\r\n        require( msg.sender == ElectionCommission , \"ElectionCommision can only call this function\");\r\n        require( _voter != ElectionCommission , \"ElectionCommision cannot vote\");\r\n        require( !BlacklistVoters[_voter] , \"Blacklisted address\");\r\n        VoterCount = VoterCount + 1 ; \r\n        VoterList[VoterCount] = _voter ; \r\n        Voters.push(_voter);\r\n        balanceOf[_voter] = 1 ; \r\n      emit VoterAdded(_voter) ; \r\n\r\n      return true ; \r\n\r\n     }\r\n\r\n     function StartVoting() public returns (bool) {\r\n      require(!votingStarted , \" Voting already started\");\r\n      votingStarted = true ; \r\n      return true;\r\n      \r\n     }\r\n\r\n\r\n     function StopVoting() public returns (bool) {\r\n      require(votingStarted , \" Voting is not started\");\r\n      votingStarted = false ; \r\n      return true;\r\n      \r\n     }\r\n\r\n     function Reset() public returns (bool) {\r\n      require( msg.sender == ElectionCommission , \"ElectionCommision can only call this function\");\r\n      for(uint256 i = 0 ; i < Voters.length ; i++){\r\n         balanceOf[Voters[i]] = 1 ; \r\n      }\r\n      for(uint256 i = 0 ; i < Candidate.length ; i++){\r\n         VoteCount[Candidate[i]] = 0 ; \r\n      }\r\n      require(votingStarted , \" Voting is not started\");\r\n      votingStarted = false ; \r\n      TotalVoteCount = 0 ;\r\n      return true;\r\n      \r\n     }\r\n\r\n     function Vote(address _candidate , address _voter) public returns (bool) { \r\n            require (msg.sender == ElectionCommission);\r\n            require(votingStarted , \"Voting has not started\");\r\n            require(balanceOf[_voter] > 0 , \"Insufficient balance.\");\r\n            VoteCount[_candidate] = VoteCount[_candidate] + balanceOf[_voter] ; \r\n            balanceOf[_voter] = 0 ; \r\n            TotalVoteCount = TotalVoteCount + 1 ; \r\n            emit CandidateData( _candidate , VoteCount[_candidate]);\r\n            return true ; \r\n     }\r\n}",
  "sourcePath": "C:\\Users\\9165p\\OneDrive\\Desktop\\OnChain Voting\\votingSys\\src\\contracts\\VoteToken.sol",
  "compiler": {
    "name": "solc",
    "version": "0.8.17+commit.8df45f5f.Emscripten.clang"
  },
  "schemaVersion": "3.4.10",
  "updatedAt": "2022-12-07T06:16:30.143Z",
  "networkType": "ethereum",
  "devdoc": {
    "kind": "dev",
    "methods": {},
    "version": 1
  },
  "userdoc": {
    "kind": "user",
    "methods": {},
    "version": 1
  }
}