{
  "contractName": "VoteToken",
  "abi": [
    {
      "inputs": [],
      "stateMutability": "nonpayable",
      "type": "constructor"
    },
    {
      "inputs": [
        {
          "internalType": "address",
          "name": "",
          "type": "address"
        }
      ],
      "name": "balanceOf",
      "outputs": [
        {
          "internalType": "uint256",
          "name": "",
          "type": "uint256"
        }
      ],
      "stateMutability": "view",
      "type": "function"
    },
    {
      "inputs": [
        {
          "internalType": "address",
          "name": "_voter",
          "type": "address"
        }
      ],
      "name": "AddVoter",
      "outputs": [
        {
          "internalType": "bool",
          "name": "",
          "type": "bool"
        }
      ],
      "stateMutability": "nonpayable",
      "type": "function"
    },
    {
      "inputs": [],
      "name": "AirDrop",
      "outputs": [
        {
          "internalType": "bool",
          "name": "",
          "type": "bool"
        }
      ],
      "stateMutability": "nonpayable",
      "type": "function"
    },
    {
      "inputs": [
        {
          "internalType": "address",
          "name": "_candidate",
          "type": "address"
        },
        {
          "internalType": "address",
          "name": "voter",
          "type": "address"
        }
      ],
      "name": "Vote",
      "outputs": [
        {
          "internalType": "bool",
          "name": "",
          "type": "bool"
        }
      ],
      "stateMutability": "nonpayable",
      "type": "function"
    }
  ],
  "bytecode": "0x60806040526040518060400160405280600481526020017f4d61617400000000000000000000000000000000000000000000000000000000815250600190816200004a919062000335565b503480156200005857600080fd5b5033600960006101000a81548173ffffffffffffffffffffffffffffffffffffffff021916908373ffffffffffffffffffffffffffffffffffffffff1602179055506001600260006101000a81548160ff0219169083151502179055506200041c565b600081519050919050565b7f4e487b7100000000000000000000000000000000000000000000000000000000600052604160045260246000fd5b7f4e487b7100000000000000000000000000000000000000000000000000000000600052602260045260246000fd5b600060028204905060018216806200013d57607f821691505b602082108103620001535762000152620000f5565b5b50919050565b60008190508160005260206000209050919050565b60006020601f8301049050919050565b600082821b905092915050565b600060088302620001bd7fffffffffffffffffffffffffffffffffffffffffffffffffffffffffffffffff826200017e565b620001c986836200017e565b95508019841693508086168417925050509392505050565b6000819050919050565b6000819050919050565b600062000216620002106200020a84620001e1565b620001eb565b620001e1565b9050919050565b6000819050919050565b6200023283620001f5565b6200024a62000241826200021d565b8484546200018b565b825550505050565b600090565b6200026162000252565b6200026e81848462000227565b505050565b5b8181101562000296576200028a60008262000257565b60018101905062000274565b5050565b601f821115620002e557620002af8162000159565b620002ba846200016e565b81016020851015620002ca578190505b620002e2620002d9856200016e565b83018262000273565b50505b505050565b600082821c905092915050565b60006200030a60001984600802620002ea565b1980831691505092915050565b6000620003258383620002f7565b9150826002028217905092915050565b6200034082620000bb565b67ffffffffffffffff8111156200035c576200035b620000c6565b5b62000368825462000124565b620003758282856200029a565b600060209050601f831160018114620003ad576000841562000398578287015190505b620003a4858262000317565b86555062000414565b601f198416620003bd8662000159565b60005b82811015620003e757848901518255600182019150602085019450602081019050620003c0565b8683101562000407578489015162000403601f891682620002f7565b8355505b6001600288020188555050505b505050505050565b610b39806200042c6000396000f3fe608060405234801561001057600080fd5b506004361061004c5760003560e01c80630ad2eca71461005157806370a0823114610081578063939c0a66146100b1578063a54b4b55146100cf575b600080fd5b61006b600480360381019061006691906106ff565b6100ff565b6040516100789190610747565b60405180910390f35b61009b600480360381019061009691906106ff565b6103c7565b6040516100a8919061077b565b60405180910390f35b6100b96103df565b6040516100c69190610747565b60405180910390f35b6100e960048036038101906100e49190610796565b6104fd565b6040516100f69190610747565b60405180910390f35b6000600960009054906101000a900473ffffffffffffffffffffffffffffffffffffffff1673ffffffffffffffffffffffffffffffffffffffff163373ffffffffffffffffffffffffffffffffffffffff1614610191576040517f08c379a000000000000000000000000000000000000000000000000000000000815260040161018890610859565b60405180910390fd5b600960009054906101000a900473ffffffffffffffffffffffffffffffffffffffff1673ffffffffffffffffffffffffffffffffffffffff168273ffffffffffffffffffffffffffffffffffffffff1603610221576040517f08c379a0000000000000000000000000000000000000000000000000000000008152600401610218906108c5565b60405180910390fd5b600360008373ffffffffffffffffffffffffffffffffffffffff1673ffffffffffffffffffffffffffffffffffffffff16815260200190815260200160002060009054906101000a900460ff16156102ae576040517f08c379a00000000000000000000000000000000000000000000000000000000081526004016102a590610931565b60405180910390fd5b60016000546102bd9190610980565b60008190555081600460008054815260200190815260200160002060006101000a81548173ffffffffffffffffffffffffffffffffffffffff021916908373ffffffffffffffffffffffffffffffffffffffff1602179055506005829080600181540180825580915050600190039060005260206000200160009091909190916101000a81548173ffffffffffffffffffffffffffffffffffffffff021916908373ffffffffffffffffffffffffffffffffffffffff1602179055506000600860008473ffffffffffffffffffffffffffffffffffffffff1673ffffffffffffffffffffffffffffffffffffffff1681526020019081526020016000208190555060019050919050565b60086020528060005260406000206000915090505481565b6000600260009054906101000a900460ff16610430576040517f08c379a000000000000000000000000000000000000000000000000000000000815260040161042790610a00565b60405180910390fd5b6000600190505b6005805490508110156104da576001600860006005848154811061045e5761045d610a20565b5b9060005260206000200160009054906101000a900473ffffffffffffffffffffffffffffffffffffffff1673ffffffffffffffffffffffffffffffffffffffff1673ffffffffffffffffffffffffffffffffffffffff1681526020019081526020016000208190555080806104d290610a4f565b915050610437565b506000600260006101000a81548160ff0219169083151502179055506001905090565b600080600860008473ffffffffffffffffffffffffffffffffffffffff1673ffffffffffffffffffffffffffffffffffffffff1681526020019081526020016000205411610580576040517f08c379a000000000000000000000000000000000000000000000000000000000815260040161057790610ae3565b60405180910390fd5b600860008373ffffffffffffffffffffffffffffffffffffffff1673ffffffffffffffffffffffffffffffffffffffff16815260200190815260200160002054600760008573ffffffffffffffffffffffffffffffffffffffff1673ffffffffffffffffffffffffffffffffffffffff1681526020019081526020016000205461060a9190610980565b600760008573ffffffffffffffffffffffffffffffffffffffff1673ffffffffffffffffffffffffffffffffffffffff168152602001908152602001600020819055506000600860008473ffffffffffffffffffffffffffffffffffffffff1673ffffffffffffffffffffffffffffffffffffffff168152602001908152602001600020819055506001905092915050565b600080fd5b600073ffffffffffffffffffffffffffffffffffffffff82169050919050565b60006106cc826106a1565b9050919050565b6106dc816106c1565b81146106e757600080fd5b50565b6000813590506106f9816106d3565b92915050565b6000602082840312156107155761071461069c565b5b6000610723848285016106ea565b91505092915050565b60008115159050919050565b6107418161072c565b82525050565b600060208201905061075c6000830184610738565b92915050565b6000819050919050565b61077581610762565b82525050565b6000602082019050610790600083018461076c565b92915050565b600080604083850312156107ad576107ac61069c565b5b60006107bb858286016106ea565b92505060206107cc858286016106ea565b9150509250929050565b600082825260208201905092915050565b7f456c656374696f6e436f6d6d6973696f6e2063616e206f6e6c792063616c6c2060008201527f746869732066756e6374696f6e00000000000000000000000000000000000000602082015250565b6000610843602d836107d6565b915061084e826107e7565b604082019050919050565b6000602082019050818103600083015261087281610836565b9050919050565b7f456c656374696f6e436f6d6d6973696f6e2063616e6e6f7420766f7465000000600082015250565b60006108af601d836107d6565b91506108ba82610879565b602082019050919050565b600060208201905081810360008301526108de816108a2565b9050919050565b7f426c61636b6c6973746564206164647265737300000000000000000000000000600082015250565b600061091b6013836107d6565b9150610926826108e5565b602082019050919050565b6000602082019050818103600083015261094a8161090e565b9050919050565b7f4e487b7100000000000000000000000000000000000000000000000000000000600052601160045260246000fd5b600061098b82610762565b915061099683610762565b92508282019050808211156109ae576109ad610951565b5b92915050565b7f2041697244726f7020616c726561647920646f6e652100000000000000000000600082015250565b60006109ea6016836107d6565b91506109f5826109b4565b602082019050919050565b60006020820190508181036000830152610a19816109dd565b9050919050565b7f4e487b7100000000000000000000000000000000000000000000000000000000600052603260045260246000fd5b6000610a5a82610762565b91507fffffffffffffffffffffffffffffffffffffffffffffffffffffffffffffffff8203610a8c57610a8b610951565b5b600182019050919050565b7f496e73756666696369656e742062616c616e63652e0000000000000000000000600082015250565b6000610acd6015836107d6565b9150610ad882610a97565b602082019050919050565b60006020820190508181036000830152610afc81610ac0565b905091905056fea2646970667358221220fde57ed9167949dd41dcdef515fb2c9cc3511417cba0fad333ff6ce1c5da782764736f6c63430008110033",
  "immutableReferences": {},
  "source": "// SPDX-License-Identifier: MIT\r\npragma solidity^0.8.17 ; \r\ncontract VoteToken { \r\n    uint256 VoterCount  ; \r\n   string TokenName = \"Maat\" ; \r\n   bool airDrop ; \r\n\r\n   mapping(address => bool) BlacklistVoters ; \r\n   mapping(uint256 => address) VoterList ; \r\n   address[] Voters ; \r\n   address[] Candidate ;\r\n   mapping(address => uint256) VoteCount ; \r\n\r\n\r\n    mapping(address => uint256) public balanceOf ; \r\n    address ElectionCommission;\r\n     constructor(){\r\n        ElectionCommission = msg.sender ; \r\n         airDrop = true ; \r\n     }\r\n     function AddVoter(address _voter) public   returns (bool) {\r\n        require( msg.sender == ElectionCommission , \"ElectionCommision can only call this function\");\r\n        require( _voter != ElectionCommission , \"ElectionCommision cannot vote\");\r\n        require( !BlacklistVoters[_voter] , \"Blacklisted address\");\r\n        VoterCount = VoterCount + 1 ; \r\n        VoterList[VoterCount] = _voter ; \r\n        Voters.push(_voter);\r\n        balanceOf[_voter] = 0 ; \r\n      return true ; \r\n\r\n     }\r\n     function AirDrop() public returns (bool) {\r\n      require( airDrop , \" AirDrop already done!\" );\r\n      for(uint256 id= 1 ; id < Voters.length ; id++){\r\n         balanceOf[Voters[id]] = 1 ; \r\n      }\r\n      airDrop = false ; \r\n      return true ; \r\n     }\r\n\r\n     function Vote(address _candidate , address voter) public returns (bool) { \r\n            require(balanceOf[voter] > 0 , \"Insufficient balance.\");\r\n            VoteCount[_candidate] = VoteCount[_candidate] + balanceOf[voter] ; \r\n            balanceOf[voter] = 0 ; \r\n            return true ; \r\n     }\r\n}",
  "sourcePath": "C:\\Users\\9165p\\OneDrive\\Desktop\\OnChain Voting\\voting\\src\\contracts\\VoteToken.sol",
  "compiler": {
    "name": "solc",
    "version": "0.8.17+commit.8df45f5f.Emscripten.clang"
  },
  "schemaVersion": "3.4.10",
  "updatedAt": "2022-11-28T09:49:16.086Z",
  "devdoc": {
    "kind": "dev",
    "methods": {},
    "version": 1
  },
  "userdoc": {
    "kind": "user",
    "methods": {},
    "version": 1
  }
}