{
  "contractName": "VoteToken",
  "abi": [
    {
      "inputs": [],
      "stateMutability": "nonpayable",
      "type": "constructor"
    },
    {
      "anonymous": false,
      "inputs": [
        {
          "indexed": false,
          "internalType": "address",
          "name": "candidate",
          "type": "address"
        },
        {
          "indexed": false,
          "internalType": "uint256",
          "name": "count",
          "type": "uint256"
        }
      ],
      "name": "CandidateData",
      "type": "event"
    },
    {
      "anonymous": false,
      "inputs": [
        {
          "indexed": false,
          "internalType": "address",
          "name": "candidate",
          "type": "address"
        },
        {
          "indexed": false,
          "internalType": "string",
          "name": "image",
          "type": "string"
        },
        {
          "indexed": false,
          "internalType": "string",
          "name": "residence",
          "type": "string"
        }
      ],
      "name": "CandidateList",
      "type": "event"
    },
    {
      "anonymous": false,
      "inputs": [
        {
          "indexed": false,
          "internalType": "address",
          "name": "voter",
          "type": "address"
        }
      ],
      "name": "VoterAdded",
      "type": "event"
    },
    {
      "inputs": [
        {
          "internalType": "address",
          "name": "",
          "type": "address"
        }
      ],
      "name": "BlacklistVoters",
      "outputs": [
        {
          "internalType": "bool",
          "name": "",
          "type": "bool"
        }
      ],
      "stateMutability": "view",
      "type": "function",
      "constant": true
    },
    {
      "inputs": [
        {
          "internalType": "uint256",
          "name": "",
          "type": "uint256"
        }
      ],
      "name": "Candidate",
      "outputs": [
        {
          "internalType": "address",
          "name": "",
          "type": "address"
        }
      ],
      "stateMutability": "view",
      "type": "function",
      "constant": true
    },
    {
      "inputs": [],
      "name": "ElectionCommission",
      "outputs": [
        {
          "internalType": "address",
          "name": "",
          "type": "address"
        }
      ],
      "stateMutability": "view",
      "type": "function",
      "constant": true
    },
    {
      "inputs": [],
      "name": "TokenName",
      "outputs": [
        {
          "internalType": "string",
          "name": "",
          "type": "string"
        }
      ],
      "stateMutability": "view",
      "type": "function",
      "constant": true
    },
    {
      "inputs": [
        {
          "internalType": "address",
          "name": "",
          "type": "address"
        }
      ],
      "name": "VoteCount",
      "outputs": [
        {
          "internalType": "uint256",
          "name": "",
          "type": "uint256"
        }
      ],
      "stateMutability": "view",
      "type": "function",
      "constant": true
    },
    {
      "inputs": [],
      "name": "VoterCount",
      "outputs": [
        {
          "internalType": "uint256",
          "name": "",
          "type": "uint256"
        }
      ],
      "stateMutability": "view",
      "type": "function",
      "constant": true
    },
    {
      "inputs": [
        {
          "internalType": "uint256",
          "name": "",
          "type": "uint256"
        }
      ],
      "name": "VoterList",
      "outputs": [
        {
          "internalType": "address",
          "name": "",
          "type": "address"
        }
      ],
      "stateMutability": "view",
      "type": "function",
      "constant": true
    },
    {
      "inputs": [
        {
          "internalType": "uint256",
          "name": "",
          "type": "uint256"
        }
      ],
      "name": "Voters",
      "outputs": [
        {
          "internalType": "address",
          "name": "",
          "type": "address"
        }
      ],
      "stateMutability": "view",
      "type": "function",
      "constant": true
    },
    {
      "inputs": [
        {
          "internalType": "address",
          "name": "",
          "type": "address"
        }
      ],
      "name": "balanceOf",
      "outputs": [
        {
          "internalType": "uint256",
          "name": "",
          "type": "uint256"
        }
      ],
      "stateMutability": "view",
      "type": "function",
      "constant": true
    },
    {
      "inputs": [
        {
          "internalType": "address",
          "name": "_candidate",
          "type": "address"
        },
        {
          "internalType": "string",
          "name": "image",
          "type": "string"
        },
        {
          "internalType": "string",
          "name": "residence",
          "type": "string"
        }
      ],
      "name": "addCandidate",
      "outputs": [
        {
          "internalType": "bool",
          "name": "",
          "type": "bool"
        }
      ],
      "stateMutability": "nonpayable",
      "type": "function"
    },
    {
      "inputs": [
        {
          "internalType": "address",
          "name": "_voter",
          "type": "address"
        }
      ],
      "name": "searchVoter",
      "outputs": [
        {
          "internalType": "bool",
          "name": "",
          "type": "bool"
        }
      ],
      "stateMutability": "view",
      "type": "function",
      "constant": true
    },
    {
      "inputs": [
        {
          "internalType": "address",
          "name": "_candidate",
          "type": "address"
        }
      ],
      "name": "searchCandidate",
      "outputs": [
        {
          "internalType": "bool",
          "name": "",
          "type": "bool"
        }
      ],
      "stateMutability": "view",
      "type": "function",
      "constant": true
    },
    {
      "inputs": [
        {
          "internalType": "address",
          "name": "_voter",
          "type": "address"
        }
      ],
      "name": "AddVoter",
      "outputs": [
        {
          "internalType": "bool",
          "name": "",
          "type": "bool"
        }
      ],
      "stateMutability": "nonpayable",
      "type": "function"
    },
    {
      "inputs": [
        {
          "internalType": "address",
          "name": "_candidate",
          "type": "address"
        },
        {
          "internalType": "address",
          "name": "_voter",
          "type": "address"
        }
      ],
      "name": "Vote",
      "outputs": [
        {
          "internalType": "bool",
          "name": "",
          "type": "bool"
        }
      ],
      "stateMutability": "nonpayable",
      "type": "function"
    }
  ],
  "bytecode": "0x60806040526040518060400160405280600481526020017f4d61617400000000000000000000000000000000000000000000000000000000815250600190816200004a91906200031a565b503480156200005857600080fd5b5033600860006101000a81548173ffffffffffffffffffffffffffffffffffffffff021916908373ffffffffffffffffffffffffffffffffffffffff16021790555062000401565b600081519050919050565b7f4e487b7100000000000000000000000000000000000000000000000000000000600052604160045260246000fd5b7f4e487b7100000000000000000000000000000000000000000000000000000000600052602260045260246000fd5b600060028204905060018216806200012257607f821691505b602082108103620001385762000137620000da565b5b50919050565b60008190508160005260206000209050919050565b60006020601f8301049050919050565b600082821b905092915050565b600060088302620001a27fffffffffffffffffffffffffffffffffffffffffffffffffffffffffffffffff8262000163565b620001ae868362000163565b95508019841693508086168417925050509392505050565b6000819050919050565b6000819050919050565b6000620001fb620001f5620001ef84620001c6565b620001d0565b620001c6565b9050919050565b6000819050919050565b6200021783620001da565b6200022f620002268262000202565b84845462000170565b825550505050565b600090565b6200024662000237565b620002538184846200020c565b505050565b5b818110156200027b576200026f6000826200023c565b60018101905062000259565b5050565b601f821115620002ca5762000294816200013e565b6200029f8462000153565b81016020851015620002af578190505b620002c7620002be8562000153565b83018262000258565b50505b505050565b600082821c905092915050565b6000620002ef60001984600802620002cf565b1980831691505092915050565b60006200030a8383620002dc565b9150826002028217905092915050565b6200032582620000a0565b67ffffffffffffffff811115620003415762000340620000ab565b5b6200034d825462000109565b6200035a8282856200027f565b600060209050601f8311600181146200039257600084156200037d578287015190505b620003898582620002fc565b865550620003f9565b601f198416620003a2866200013e565b60005b82811015620003cc57848901518255600182019150602085019450602081019050620003a5565b86831015620003ec5784890151620003e8601f891682620002dc565b8355505b6001600288020188555050505b505050505050565b61171680620004116000396000f3fe608060405234801561001057600080fd5b50600436106100ea5760003560e01c8063a54b4b551161008c578063d82d4eb911610066578063d82d4eb914610299578063e22a6231146102c9578063e2f11b9c146102f9578063e7a5001a14610329576100ea565b8063a54b4b551461021b578063b381a9351461024b578063b6d7855a1461027b576100ea565b80632e46fb9a116100c85780632e46fb9a1461017f578063643e94c41461019d57806370a08231146101bb5780639c35d98b146101eb576100ea565b806303a0d535146100ef5780630ad2eca71461011f5780632b1647491461014f575b600080fd5b61010960048036038101906101049190610e70565b610359565b6040516101169190610ede565b60405180910390f35b61013960048036038101906101349190610f25565b61038c565b6040516101469190610f6d565b60405180910390f35b61016960048036038101906101649190610f25565b61068b565b6040516101769190610f6d565b60405180910390f35b6101876106ab565b6040516101949190610f97565b60405180910390f35b6101a56106b1565b6040516101b29190610ede565b60405180910390f35b6101d560048036038101906101d09190610f25565b6106d7565b6040516101e29190610f97565b60405180910390f35b61020560048036038101906102009190610e70565b6106ef565b6040516102129190610ede565b60405180910390f35b61023560048036038101906102309190610fb2565b61072e565b6040516102429190610f6d565b60405180910390f35b61026560048036038101906102609190610f25565b6109a0565b6040516102729190610f6d565b60405180910390f35b610283610a4e565b6040516102909190611082565b60405180910390f35b6102b360048036038101906102ae9190610f25565b610adc565b6040516102c09190610f97565b60405180910390f35b6102e360048036038101906102de91906111d9565b610af4565b6040516102f09190610f6d565b60405180910390f35b610313600480360381019061030e9190610e70565b610d39565b6040516103209190610ede565b60405180910390f35b610343600480360381019061033e9190610f25565b610d78565b6040516103509190610f6d565b60405180910390f35b60036020528060005260406000206000915054906101000a900473ffffffffffffffffffffffffffffffffffffffff1681565b6000600860009054906101000a900473ffffffffffffffffffffffffffffffffffffffff1673ffffffffffffffffffffffffffffffffffffffff163373ffffffffffffffffffffffffffffffffffffffff161461041e576040517f08c379a0000000000000000000000000000000000000000000000000000000008152600401610415906112d6565b60405180910390fd5b600860009054906101000a900473ffffffffffffffffffffffffffffffffffffffff1673ffffffffffffffffffffffffffffffffffffffff168273ffffffffffffffffffffffffffffffffffffffff16036104ae576040517f08c379a00000000000000000000000000000000000000000000000000000000081526004016104a590611342565b60405180910390fd5b600260008373ffffffffffffffffffffffffffffffffffffffff1673ffffffffffffffffffffffffffffffffffffffff16815260200190815260200160002060009054906101000a900460ff161561053b576040517f08c379a0000000000000000000000000000000000000000000000000000000008152600401610532906113ae565b60405180910390fd5b600160005461054a91906113fd565b60008190555081600360008054815260200190815260200160002060006101000a81548173ffffffffffffffffffffffffffffffffffffffff021916908373ffffffffffffffffffffffffffffffffffffffff1602179055506004829080600181540180825580915050600190039060005260206000200160009091909190916101000a81548173ffffffffffffffffffffffffffffffffffffffff021916908373ffffffffffffffffffffffffffffffffffffffff1602179055506001600760008473ffffffffffffffffffffffffffffffffffffffff1673ffffffffffffffffffffffffffffffffffffffff168152602001908152602001600020819055507fa636f4a11e2d3ba7f89d042ecb0a6b886716e98cd49d8fd876ee0f73bced42b88260405161067a9190610ede565b60405180910390a160019050919050565b60026020528060005260406000206000915054906101000a900460ff1681565b60005481565b600860009054906101000a900473ffffffffffffffffffffffffffffffffffffffff1681565b60076020528060005260406000206000915090505481565b600481815481106106ff57600080fd5b906000526020600020016000915054906101000a900473ffffffffffffffffffffffffffffffffffffffff1681565b6000600860009054906101000a900473ffffffffffffffffffffffffffffffffffffffff1673ffffffffffffffffffffffffffffffffffffffff163373ffffffffffffffffffffffffffffffffffffffff161461078a57600080fd5b6000600760008473ffffffffffffffffffffffffffffffffffffffff1673ffffffffffffffffffffffffffffffffffffffff168152602001908152602001600020541161080c576040517f08c379a00000000000000000000000000000000000000000000000000000000081526004016108039061147d565b60405180910390fd5b600760008373ffffffffffffffffffffffffffffffffffffffff1673ffffffffffffffffffffffffffffffffffffffff16815260200190815260200160002054600660008573ffffffffffffffffffffffffffffffffffffffff1673ffffffffffffffffffffffffffffffffffffffff1681526020019081526020016000205461089691906113fd565b600660008573ffffffffffffffffffffffffffffffffffffffff1673ffffffffffffffffffffffffffffffffffffffff168152602001908152602001600020819055506000600760008473ffffffffffffffffffffffffffffffffffffffff1673ffffffffffffffffffffffffffffffffffffffff168152602001908152602001600020819055507f371bfe7bf83b122a53e3e861e2ac33ffea98c974348a3d7f4c6e819f18775e8683600660008673ffffffffffffffffffffffffffffffffffffffff1673ffffffffffffffffffffffffffffffffffffffff1681526020019081526020016000205460405161098e92919061149d565b60405180910390a16001905092915050565b600080600090505b600480549050811015610a43578273ffffffffffffffffffffffffffffffffffffffff16600482815481106109e0576109df6114c6565b5b9060005260206000200160009054906101000a900473ffffffffffffffffffffffffffffffffffffffff1673ffffffffffffffffffffffffffffffffffffffff1603610a30576001915050610a49565b8080610a3b906114f5565b9150506109a8565b50600090505b919050565b60018054610a5b9061156c565b80601f0160208091040260200160405190810160405280929190818152602001828054610a879061156c565b8015610ad45780601f10610aa957610100808354040283529160200191610ad4565b820191906000526020600020905b815481529060010190602001808311610ab757829003601f168201915b505050505081565b60066020528060005260406000206000915090505481565b6000600860009054906101000a900473ffffffffffffffffffffffffffffffffffffffff1673ffffffffffffffffffffffffffffffffffffffff163373ffffffffffffffffffffffffffffffffffffffff1614610b86576040517f08c379a0000000000000000000000000000000000000000000000000000000008152600401610b7d9061160f565b60405180910390fd5b3373ffffffffffffffffffffffffffffffffffffffff168473ffffffffffffffffffffffffffffffffffffffff1603610bbe57600080fd5b600260008573ffffffffffffffffffffffffffffffffffffffff1673ffffffffffffffffffffffffffffffffffffffff16815260200190815260200160002060009054906101000a900460ff1615610c4b576040517f08c379a0000000000000000000000000000000000000000000000000000000008152600401610c429061167b565b60405180910390fd5b6005849080600181540180825580915050600190039060005260206000200160009091909190916101000a81548173ffffffffffffffffffffffffffffffffffffffff021916908373ffffffffffffffffffffffffffffffffffffffff1602179055506000600660008673ffffffffffffffffffffffffffffffffffffffff1673ffffffffffffffffffffffffffffffffffffffff168152602001908152602001600020819055507f54e7ff62d1db51c778b14e046924023d0883d713d3464796674aad4e3ff50599848484604051610d269392919061169b565b60405180910390a1600190509392505050565b60058181548110610d4957600080fd5b906000526020600020016000915054906101000a900473ffffffffffffffffffffffffffffffffffffffff1681565b600080600090505b600480549050811015610e1b578273ffffffffffffffffffffffffffffffffffffffff1660048281548110610db857610db76114c6565b5b9060005260206000200160009054906101000a900473ffffffffffffffffffffffffffffffffffffffff1673ffffffffffffffffffffffffffffffffffffffff1603610e08576001915050610e21565b8080610e13906114f5565b915050610d80565b50600090505b919050565b6000604051905090565b600080fd5b600080fd5b6000819050919050565b610e4d81610e3a565b8114610e5857600080fd5b50565b600081359050610e6a81610e44565b92915050565b600060208284031215610e8657610e85610e30565b5b6000610e9484828501610e5b565b91505092915050565b600073ffffffffffffffffffffffffffffffffffffffff82169050919050565b6000610ec882610e9d565b9050919050565b610ed881610ebd565b82525050565b6000602082019050610ef36000830184610ecf565b92915050565b610f0281610ebd565b8114610f0d57600080fd5b50565b600081359050610f1f81610ef9565b92915050565b600060208284031215610f3b57610f3a610e30565b5b6000610f4984828501610f10565b91505092915050565b60008115159050919050565b610f6781610f52565b82525050565b6000602082019050610f826000830184610f5e565b92915050565b610f9181610e3a565b82525050565b6000602082019050610fac6000830184610f88565b92915050565b60008060408385031215610fc957610fc8610e30565b5b6000610fd785828601610f10565b9250506020610fe885828601610f10565b9150509250929050565b600081519050919050565b600082825260208201905092915050565b60005b8381101561102c578082015181840152602081019050611011565b60008484015250505050565b6000601f19601f8301169050919050565b600061105482610ff2565b61105e8185610ffd565b935061106e81856020860161100e565b61107781611038565b840191505092915050565b6000602082019050818103600083015261109c8184611049565b905092915050565b600080fd5b600080fd5b7f4e487b7100000000000000000000000000000000000000000000000000000000600052604160045260246000fd5b6110e682611038565b810181811067ffffffffffffffff82111715611105576111046110ae565b5b80604052505050565b6000611118610e26565b905061112482826110dd565b919050565b600067ffffffffffffffff821115611144576111436110ae565b5b61114d82611038565b9050602081019050919050565b82818337600083830152505050565b600061117c61117784611129565b61110e565b905082815260208101848484011115611198576111976110a9565b5b6111a384828561115a565b509392505050565b600082601f8301126111c0576111bf6110a4565b5b81356111d0848260208601611169565b91505092915050565b6000806000606084860312156111f2576111f1610e30565b5b600061120086828701610f10565b935050602084013567ffffffffffffffff81111561122157611220610e35565b5b61122d868287016111ab565b925050604084013567ffffffffffffffff81111561124e5761124d610e35565b5b61125a868287016111ab565b9150509250925092565b7f456c656374696f6e436f6d6d6973696f6e2063616e206f6e6c792063616c6c2060008201527f746869732066756e6374696f6e00000000000000000000000000000000000000602082015250565b60006112c0602d83610ffd565b91506112cb82611264565b604082019050919050565b600060208201905081810360008301526112ef816112b3565b9050919050565b7f456c656374696f6e436f6d6d6973696f6e2063616e6e6f7420766f7465000000600082015250565b600061132c601d83610ffd565b9150611337826112f6565b602082019050919050565b6000602082019050818103600083015261135b8161131f565b9050919050565b7f426c61636b6c6973746564206164647265737300000000000000000000000000600082015250565b6000611398601383610ffd565b91506113a382611362565b602082019050919050565b600060208201905081810360008301526113c78161138b565b9050919050565b7f4e487b7100000000000000000000000000000000000000000000000000000000600052601160045260246000fd5b600061140882610e3a565b915061141383610e3a565b925082820190508082111561142b5761142a6113ce565b5b92915050565b7f496e73756666696369656e742062616c616e63652e0000000000000000000000600082015250565b6000611467601583610ffd565b915061147282611431565b602082019050919050565b600060208201905081810360008301526114968161145a565b9050919050565b60006040820190506114b26000830185610ecf565b6114bf6020830184610f88565b9392505050565b7f4e487b7100000000000000000000000000000000000000000000000000000000600052603260045260246000fd5b600061150082610e3a565b91507fffffffffffffffffffffffffffffffffffffffffffffffffffffffffffffffff8203611532576115316113ce565b5b600182019050919050565b7f4e487b7100000000000000000000000000000000000000000000000000000000600052602260045260246000fd5b6000600282049050600182168061158457607f821691505b6020821081036115975761159661153d565b5b50919050565b7f4f6e6c7920456c656374696f6e436f6d6d6973696f6e2063616e2063616c6c2060008201527f746869732066756e6374696f6e2e000000000000000000000000000000000000602082015250565b60006115f9602e83610ffd565b91506116048261159d565b604082019050919050565b60006020820190508181036000830152611628816115ec565b9050919050565b7f54686973206164647265737320697320426c61636b6c69737465640000000000600082015250565b6000611665601b83610ffd565b91506116708261162f565b602082019050919050565b6000602082019050818103600083015261169481611658565b9050919050565b60006060820190506116b06000830186610ecf565b81810360208301526116c28185611049565b905081810360408301526116d68184611049565b905094935050505056fea2646970667358221220124c7562b35648be431721323bf53d69909e1daff4e50a2abb9481a6b6f5dc7064736f6c63430008110033",
  "immutableReferences": {},
  "source": "// SPDX-License-Identifier: MIT\r\npragma solidity^0.8.17 ; \r\ncontract VoteToken { \r\n    uint256 public  VoterCount  ; \r\n   string  public TokenName = \"Maat\" ; \r\n\r\n   mapping(address => bool) public  BlacklistVoters ; \r\n   mapping(uint256 => address) public  VoterList ; \r\n   address[] public  Voters ; \r\n   address[] public  Candidate ; \r\n   mapping(address => uint256) public  VoteCount ; \r\n   event VoterAdded(address voter) ; \r\n   event CandidateData(address candidate , uint256 count);\r\n   event CandidateList(address candidate , string image ,string residence );\r\n    mapping(address => uint256) public balanceOf ; \r\n    address public  ElectionCommission;\r\n     constructor(){\r\n        ElectionCommission = msg.sender ; \r\n     }\r\n     function addCandidate(address _candidate , string memory image , string memory residence) public returns (bool) {\r\n         require(msg.sender == ElectionCommission , \"Only ElectionCommision can call this function.\");\r\n         require( _candidate != msg.sender) ; \r\n         require(!BlacklistVoters[_candidate] , \"This address is Blacklisted\");\r\n         Candidate.push(_candidate) ; \r\n         VoteCount[_candidate] = 0 ;\r\n         emit CandidateList(_candidate ,  image , residence );\r\n\r\n         return true;\r\n     }\r\n\r\n     function searchVoter(address _voter) public view returns (bool) {\r\n      for(uint256 i = 0 ; i < Voters.length ; i++){\r\n         if(Voters[i] == _voter) return true ;\r\n      }\r\n      return false ;\r\n     } \r\n        function searchCandidate(address _candidate) public view returns (bool) {\r\n      for(uint256 i = 0 ; i < Voters.length ; i++){\r\n         if(Voters[i] == _candidate) return true ;\r\n      }\r\n      return false ;\r\n     }\r\n     function AddVoter(address _voter) public   returns (bool) {\r\n        require( msg.sender == ElectionCommission , \"ElectionCommision can only call this function\");\r\n        require( _voter != ElectionCommission , \"ElectionCommision cannot vote\");\r\n        require( !BlacklistVoters[_voter] , \"Blacklisted address\");\r\n        VoterCount = VoterCount + 1 ; \r\n        VoterList[VoterCount] = _voter ; \r\n        Voters.push(_voter);\r\n        balanceOf[_voter] = 1 ; \r\n      emit VoterAdded(_voter) ; \r\n\r\n      return true ; \r\n\r\n     }\r\n\r\n     function Vote(address _candidate , address _voter) public returns (bool) { \r\n            require (msg.sender == ElectionCommission);\r\n            require(balanceOf[_voter] > 0 , \"Insufficient balance.\");\r\n            VoteCount[_candidate] = VoteCount[_candidate] + balanceOf[_voter] ; \r\n            balanceOf[_voter] = 0 ; \r\n            emit CandidateData( _candidate , VoteCount[_candidate]);\r\n\r\n            return true ; \r\n     }\r\n}",
  "sourcePath": "C:\\Users\\9165p\\OneDrive\\Desktop\\OnChain Voting\\votingSys\\src\\contracts\\VoteToken.sol",
  "compiler": {
    "name": "solc",
    "version": "0.8.17+commit.8df45f5f.Emscripten.clang"
  },
  "schemaVersion": "3.4.10",
  "updatedAt": "2022-12-04T06:25:02.557Z",
  "networkType": "ethereum",
  "devdoc": {
    "kind": "dev",
    "methods": {},
    "version": 1
  },
  "userdoc": {
    "kind": "user",
    "methods": {},
    "version": 1
  }
}